:020000040800F2
:100000003004002045010008150300080D03000816
:1000100011030008B9010008D90A00080000000017
:10002000000000000000000000000000D1050008F2
:10003000F1010008000000009D030008E50600082B
:100040005F0100085F0100085F0100085F01000810
:100050005F0100085F0100085F0100085F01000800
:100060005F0100085F0100085F0100085F010008F0
:100070005F0100085F0100085F0100085F010008E0
:100080005F0100085F0100085F0100085F010008D0
:100090005F0100085F0100085F0100085F010008C0
:1000A0005F0100085F0100085F0100085F010008B0
:1000B0005F0100085F0100085F0100085F010008A0
:1000C0005F0100085F0100085F0100085F01000890
:1000D0005F010008490700086D0700085F0100087C
:1000E0005F0100085F0100085F0100085F01000870
:1000F0005F0100085F0100085F0100085F01000860
:100100005F0100085F0100085F0100085F0100084F
:100110005F0100085F0100085F0100085F0100083F
:100120005F0100085F0100085F0100085F0100082F
:10013000DFF80CD000F02EF800480047690E0008E8
:10014000300400200648804706480047FEE7FEE7E7
:10015000FEE7FEE7FEE7FEE7FEE7FEE7FEE7FEE777
:10016000E90600083101000830B50B4601460020C1
:100170002022012409E021FA02F59D4205D303FA69
:1001800002F5491B04FA02F52844151EA2F10102EA
:10019000F1DC30BD064C074D06E0E06840F001039D
:1001A00094E8070098471034AC42F6D3FFF7C4FF39
:1001B000C40F0008E40F000800BFFEE708B50121E6
:1001C000102000F0FDF88020ADF8000010208DF820
:1001D000030003208DF802006946044800F009F886
:1001E0008021024800F090F808BD00000010014096
:1001F00070472DE9F041024600250026002000232B
:100200000024002791F803C00CF00F0591F803C0FB
:100210000CF0100CBCF1000F03D091F802C04CEAB6
:10022000050591F800C0BCF1000F31D01468002022
:100230002BE04FF0010C0CFA00F3B1F800C00CEA0F
:1002400003069E4220D183004FF00F0C0CFA03F7F7
:10025000BC4305FA03FC4CEA040491F803C0BCF16A
:10026000280F06D14FF0010C0CFA00FCC2F814C0A4
:100270000AE091F803C0BCF1480F05D14FF0010C22
:100280000CFA00FCC2F810C0401C0828D1D314603E
:10029000B1F800C0BCF1FF0F34DD546800202EE03F
:1002A00000F1080C4FF0010808FA0CF3B1F800C097
:1002B0000CEA03069E4221D183004FF00F0C0CFA8A
:1002C00003F7BC4305FA03FC4CEA040491F803C0AD
:1002D000BCF1280F05D100F1080C08FA0CF8C2F89F
:1002E000148091F803C0BCF1480F07D100F1080C4D
:1002F0004FF0010808FA0CF8C2F81080401C0828DA
:10030000CED35460BDE8F0814161704700BFFEE785
:1003100000BFFEE77047000070B5002100230F22E8
:10032000C47804B3154C246804F4E064C4F5E064B4
:10033000210AC1F10403CA40447804FA03F1847825
:100340001440214309010E4C0678A155047804F0AD
:100350001F050124AC4005786D11AD0005F1E025C5
:10036000C5F8004109E0047804F01F050124AC4001
:10037000044D0678761145F8264070BD0CED00E07E
:1003800000E400E080E100E002490143024A11601C
:10039000704700000000FA050CED00E07047000017
:1003A00029B1064AD2690243044BDA6104E0034AE8
:1003B000D2698243014BDA617047000000100240AD
:1003C00029B1064A92690243044B9A6104E0034A48
:1003D00092698243014B9A6170470000001002400D
:1003E00030B500210022002400232D4D6D6805F05A
:1003F0000C0121B1042905D0082923D105E0294D9C
:10040000056022E0274D05601FE0254D6D6805F46D
:100410007012234D6D6805F48034022505EB92427D
:100420001CB9214D554305600BE01D4D6D6805F469
:1004300000351DB11C4D5543056002E0194D554373
:10044000056002E0174D056000BF00BF144D6D68E8
:1004500005F0F0010909154D6B5C0568DD4045604C
:100460000F4D6D6805F4E061090A104D6B5C45683D
:10047000DD4085600A4D6D6805F46051C90A0B4D79
:100480006B5C4568DD40C560054D6D6805F4404115
:10049000890B074D6B5CC568B5FBF3F5056130BD95
:1004A0000010024000127A0000093D0018000020F0
:1004B0002800002010B5012000F06AFD4FF47A708A
:1004C00000F086FC4FF47A7000F082FC4FF47A70F2
:1004D00000F07EFC4FF47A7000F07AFC4FF47A70F2
:1004E00000F076FC31A134A000F018FD4FF47A70D2
:1004F00000F06EFC4FF47A7000F06AFC4FF47A70F2
:1005000000F066FC4FF47A7000F062FC4FF47A70F1
:1005100000F05EFC4FF47A7000F05AFC4FF47A70F1
:1005200000F056FC4FF47A7000F052FC4FF47A70F1
:1005300000F04EFC4FF47A7000F04AFC002341F6C4
:1005400090721FA1032000F0CFFB4FF47A7000F0EF
:100550003FFC4FF47A7000F03BFC4FF47A7000F0EF
:1005600037FC4FF47A7000F033FC4FF47A7000F0EF
:100570002FFC012000F0F2FC4FF47A7000F028FC10
:100580004FF47A7000F024FC4FF47A7000F020FCF5
:100590004FF47A7000F01CFC4FF47A7000F018FCF5
:1005A00000221146012000F081FC10BD7931323368
:1005B000343536373839000079616E670000000045
:1005C0003139322E3136382E312E313031000000A3
:1005D000704710B500F002F810BD00000CB5002007
:1005E000019000903348006840F480303149086041
:1005F00000BF3048006800F4003000900198401CB3
:100600000190009818B90198B0F5A06FF1D1294870
:10061000006800F4003010B10120009001E00020DB
:1006200000900098012843D12348006840F0100052
:10063000214908600846006820F003000860084669
:10064000006840F0020008601A4840681949486094
:100650000846406848600846406840F4806048604A
:100660000846406820F47C1048600846406840F422
:10067000E81048600846006840F08070086000BFDD
:100680000C48006800F000700028F9D00948406864
:1006900020F00300074948600846406840F0020027
:1006A000486000BF0348406800F00C000828F9D1FA
:1006B0000CBD00000010024000200240042808D1B8
:1006C0004FF0E021096941F004014FF0E02211618F
:1006D00007E04FF0E021096921F004014FF0E0222A
:1006E000116170477047000010B51348006840F072
:1006F00001001149086008464068104908400E4949
:100700004860084600680E4908400B4908600846E2
:10071000006820F4802008600846406820F4FE004D
:1007200048604FF41F008860FFF753FF4FF00060F0
:100730000449086010BD0000001002400000FFF8EE
:10074000FFFFF6FE08ED00E010B540F22551064827
:1007500000F039F838B1044800F0F0F804462146BA
:10076000014800F0F0F810BD0038014010B540F22B
:100770002551064800F027F838B1044800F0DEF8AB
:1007800004462146024800F0DEF810BD0044004057
:100790000038014021B1828942F40052828104E094
:1007A00082894DF6FF731A4082817047024600200D
:1007B000B1F5007F00D100BF13880B400BB10120C1
:1007C00000E00020704770B5024600240023002599
:1007D000002040F66A16B14200D100BFC1F34215B5
:1007E00001F01F03012606FA03F3012D02D19689B9
:1007F000334006E0022D02D1168A334001E0968A8A
:1008000033400C12012606FA04F41688344013B162
:100810000CB1012000E0002070BDF0B503460024BB
:1008200000260025002040F66A17B94200D100BF1B
:100830001846C1F3421401F01F06012707FA06F516
:10084000012C01D10C3004E0022C01D1103000E069
:1008500014301AB107682F43076002E00768AF43FE
:100860000760F0BD2DE9F04786B005460E4600242E
:10087000A24600BFA1460027B08900B100BF2F46A5
:100880002C8A4CF6FF700440F08804432C82AC891B
:100890004EF6F3100440B08831890843718908434B
:1008A0000443AC81AC8A4FF6FF400440B089044356
:1008B000AC8201A8FFF794FD1F48874202D1DDF802
:1008C00010A001E0DDF80CA0A88900F4004040B1C0
:1008D0000AEBCA0000EB0A1031684900B0FBF1F8DE
:1008E00007E00AEBCA0000EB0A1031688900B0FB90
:1008F000F1F86420B8FBF0F004012009642101FB49
:100900001089A88900F4004040B1322000EBC900F2
:10091000B0FBF1F000F00700044308E0322000EBE8
:1009200009106421B0FBF1F000F00F0004432C81AA
:1009300006B0BDE8F0870000003801400146888815
:10094000C0F308007047C1F30802828070470000BE
:1009500000B587B0012144F20400FFF731FD4FF4E8
:100960000070ADF8180018208DF81B0003208DF8DA
:100970001A0006A91F48FFF73CFC4FF48060ADF851
:10098000180004208DF81B0006A91A48FFF731FC57
:100990004FF4A060FFF7F8FC25208DF80400032039
:1009A0008DF805008DF8060001208DF8070001A8DC
:1009B000FFF7B2FC4FF4E13002900020ADF80C00DC
:1009C000ADF80E00ADF81000ADF814000C20ADF835
:1009D000120002A90848FFF745FF012240F2255105
:1009E0000548FFF71AFF01210348FFF7D3FE07B0C0
:1009F00000BD0000000801400038014000B587B08C
:100A000001210420FFF7DCFC01214804FFF7C8FCAA
:100A10000420ADF8180018208DF81B0003208DF875
:100A20001A0006A91E48FFF7E4FB0820ADF81800DD
:100A300004208DF81B0006A91948FFF7DAFB4FF4D4
:100A4000A060FFF7A1FC26208DF8040002208DF89D
:100A500005008DF8060001208DF8070001A8FFF7BA
:100A60005BFC4FF4E13002900020ADF80C00ADF8D3
:100A70000E00ADF81000ADF814000C20ADF8120017
:100A800002A90848FFF7EEFE012240F22551054871
:100A9000FFF7C3FE01210348FFF77CFE07B000BD4E
:100AA000000801400044004070B505460E46002491
:100AB0000CE000BF40210748FFF778FE0028F9D07E
:100AC000295D0448FFF73FFF601C84B2B442F0DBAD
:100AD000204670BD0044004000BFFEE70FB4084B45
:100AE00010B504A902AA039800F01CF8044602A954
:100AF000002000F0F3F8204610BC5DF814FB000065
:100B0000DD0C000802E008C8121F08C1002AFAD153
:100B100070477047002001E001C1121F002AFBD17D
:100B2000704700002DE9FF4F8BB09A460F460546EF
:100B3000002606E025280BD052460D9990476D1CE3
:100B4000761C28780028F5D10FB03046BDE8F08F2C
:100B50000024A0460122604900E0044315F8013F4B
:100B6000203B02FA03F00842F7D128782E2817D14B
:100B700015F8010F44F004042A280ED06FF02F025C
:100B80002878A0F1300109290AD808EB880102EB86
:100B9000410100EB01086D1CF2E757F8048B6D1C56
:100BA000287869283ED006DC0028CDD063280BD0F9
:100BB000642804D136E0732810D075284BD05246F3
:100BC0000D999047761C85E017F8040B8DF800000E
:100BD00000208DF80100E946012003E057F8049B4E
:100BE0004FF0FF3061074FF0000401D40AE0641CAD
:100BF00044450DDA8442FADB19F804100029F6D1D5
:100C000006E0641C8442FCDB19F804100029F8D1CA
:100C1000264404E019F8010B52460D999047641ED2
:100C2000F8D257E001CF4FF00A0B002802DA404219
:100C30002D2102E0210504D52B218DF8241001215E
:100C400003E0E10705D02021F7E70DF12009089125
:100C50000CE00021F9E701CF4FF00A0BF9E7594604
:100C6000FFF782FA01F1300209F8012D0028F6D1D0
:100C7000ADEB090000F1200B600701D44FF0010833
:100C8000D84502DDA8EB0B0000E0002080460024E0
:100C900006E009A85246005D0D999047641C761C39
:100CA00008988442F5DB04E0302052460D999047C5
:100CB000761CB8F10001A8F10108F5DC05E019F88F
:100CC000010B52460D999047761CBBF10001ABF128
:100CD000010BF4DC6D1C34E7092801000A68531C81
:100CE0000B60107070470000F0B591B004460E46DE
:100CF00015461F46012C08D1334610A212A102A8A6
:100D0000CDE90057FFF7EAFE11E0022C06D13B4681
:100D100013A217A102A8FFF7E1FE08E0032C06D1F9
:100D2000334606A214A102A80095FFF7D7FE3C2186
:100D300002A8FFF7B9FE11B0F0BD000041542B43EB
:100D4000495053544152540025733D22554450227A
:100D50002C222573222C25642C25642C300D0A00AE
:100D600041542B4349505345525645520000000010
:100D700025733D312C25640025733D2254435022B8
:100D80002C222573222C25640D0A000010B56FF06B
:100D90000400FFF793FC0A4800680A49B0FBF1F031
:100DA000094908700846007800EB4001C1EBC0100B
:100DB0004FF6FF7101EAC0000449088010BD000031
:100DC0000000002000127A0014000020160000200D
:100DD0000146114A12884A434FF0E0235A6100222B
:100DE0009A611A46126942F001021A6100BF4FF07F
:100DF000E022106900F001021AB100F48032002AEA
:100E0000F5D04FF0E022126922F001024FF0E0230A
:100E10001A6100229A6170471600002070B50446DE
:100E20000D46FFF7EBFDFFF7C9F94FF49670FFF79A
:100E3000CFFF01200B4908604FF47A70FFF7C8FF1D
:100E40004FF47A70FFF7C4FF4FF47A70FFF7C0FFDA
:100E50004FF47A70FFF7BCFF4FF47A70FFF7B8FFDA
:100E600070BD00009C012242FFF790FFFFF770FD6C
:100E700007A10AA0FFF7D2FFFFF71CFB07E04FF422
:100E8000FA70FFF7A5FF052106A0FFF70DFEF6E7B4
:100E900079313233343536373839000079616E674D
:100EA00000000000737373730000000070B586B01B
:100EB00004460E461546012C05D10EA210A101A82C
:100EC000FFF70CFE0FE0032C06D12B4609A20EA162
:100ED00001A8FFF703FE06E0334606A20CA101A815
:100EE0000095FFF7FBFD142101A8FFF7DDFD06B01B
:100EF00070BD000041542B43495053454E440000FF
:100F000025730D0A0000000025733D25640D0A00BD
:100F100025733D25642C25640D0A000030B591B081
:100F200004460D46234606A208A102A80095FFF735
:100F3000D5FD3C2102A8FFF7B7FD11B030BD000080
:100F400041542B43574A41500000000025733D2275
:100F50002573222C222573220D0A000010B586B0BD
:100F60000446234605A208A101A8FFF7B7FD0E21FC
:100F700001A8FFF799FD06B010BD000041542B43B6
:100F800049504D4F4445000025733D25640D0A002E
:100F900010B586B00446234605A208A101A8FFF7B4
:100FA0009DFD0D2101A8FFF77FFD06B010BD0000DB
:100FB00041542B43574D4F444500000025733D25B8
:100FC000640D0A00E40F0008000000202C0000005F
:100FD000040B0008101000082C000020040400007E
:100FE000140B000800A24A040000000000000000EA
:100FF00001020304060708090000000000000000C9
:10100000010203040102030406070809020406089A
:0400000508000145A9
:00000001FF
