:020000040800F2
:10000000280F0020D5010008CD070008A10700082F
:10001000C9070008B5030008CD0E00080000000065
:10002000000000000000000000000000830A00083B
:10003000B90300080000000055080008950B0008EF
:10004000EF010008EF010008EF010008EF010008D0
:10005000EF010008EF010008EF010008BD030008F0
:10006000EF010008EF010008EF010008EF010008B0
:10007000EF010008EF010008EF010008EF010008A0
:10008000EF010008EF010008EF010008EF01000890
:10009000EF010008EF010008EF010008D903000894
:1000A000EF010008EF010008EF010008EF01000870
:1000B000EF010008F90B0008EF010008EF0100084C
:1000C000EF010008EF010008EF010008EF01000850
:1000D000EF010008A50C0008EF010008EF0100087F
:1000E000EF010008EF010008EF010008EF01000830
:1000F000EF010008EF010008EF010008EF01000820
:10010000EF010008EF010008EF010008EF0100080F
:10011000EF010008EF010008EF010008EF010008FF
:10012000EF010008EF010008EF010008EF010008EF
:1001300000F002F800F03AF80AA090E8000C8244BF
:100140008344AAF10107DA4501D100F02FF8AFF29C
:10015000090EBAE80F0013F0010F18BFFB1A43F0A5
:10016000010318471411000034110000103A24BF95
:1001700078C878C1FAD8520724BF30C830C144BF0C
:1001800004680C607047000000230024002500264E
:10019000103A28BF78C1FBD8520728BF30C148BFEA
:1001A0000B6070471FB51FBD10B510BD00F0BCF847
:1001B0001146FFF7F7FF00F041FF00F0EEF803B43F
:1001C000FFF7F2FF03BC00F083FE000080F3088815
:1001D000704700000948804709480047FEE7FEE7EE
:1001E000FEE7FEE7FEE7FEE7FEE7FEE7FEE7FEE7E7
:1001F00004480549054A064B70470000990B000862
:100200003101000828090020280F0020280B0020B9
:10021000280B0020704700000FB4044910B503AA52
:10022000029800F02BF810BC5DF814FB20000020B1
:100230004FF000020429C0F0128010F0030C00F00F
:100240003180CCF1040CBCF1020F18BF00F8012B77
:10025000A8BF20F8022BA1EB0C0100F023B85FEA45
:10026000C17C24BF00F8012B00F8012B48BF00F827
:10027000012B70477047704770477047074B70B548
:100280000D467B4400F039F80446284600F048F853
:1002900010B14FF0FF3070BD204670BD070D00005B
:1002A0004FF0000200B5134694469646203922BF0F
:1002B000A0E80C50A0E80C50B1F12001BFF4F7AF5A
:1002C000090728BFA0E80C5048BF0CC05DF804EB3C
:1002D000890028BF40F8042B08BF704748BF20F8AA
:1002E000022B11F0804F18BF00F8012B704700005F
:1002F00001694A1C02610878704700B58FB0CDE9EA
:1003000001310021059105497944CDE903101146D9
:10031000684600F02EF80FB000BD0000E5FFFFFFBB
:10032000007B00F080007047754600F03FF8AE4655
:1003300005006946534620F00700854618B020B5F1
:10034000FFF756FFBDE820404FF000064FF00007D2
:100350004FF000084FF0000B21F00701AC46ACE86D
:10036000C009ACE8C009ACE8C009ACE8C0098D46DA
:1003700070472DE9F04106460024D6E90170F56882
:100380008046304603E04146B847641C3046A847E3
:100390000028F8D12046BDE8F08110B50446AFF33F
:1003A00000802046BDE81040FFF709BF00487047B5
:1003B000C808002000BFFEE77047000010B50A2003
:1003C00000F0BEFD0221034800F0E1F9022000F038
:1003D00059F810BD0010014010B50A2000F0B0FD22
:1003E0002021054800F0D3F910B901200349087015
:1003F000202000F047F810BD00100140140000203C
:100400000EB50121112000F027FA0521022000F08D
:1004100013F92020019000208DF808000C208DF8A1
:10042000090001208DF80A0001A800F031F801212F
:10043000022000F001F90220019001A800F028F844
:100440004FF4A06000F0FCF917208DF800000220A6
:100450008DF8010003208DF8020001208DF80300C3
:10046000684600F0B5F907208DF8000003208DF8EC
:1004700001008DF8020001208DF80300684600F0AD
:10048000A7F90EBD0149086070470000140401403F
:10049000002123498279002A3AD00A46126803686B
:1004A0009A430B461A600A1D126803689A430B1D93
:1004B0001A60027911440A6803681A430A60184AEC
:1004C0000832126803689A43154B08331A601A1DE4
:1004D000126803689A43124B0C331A604279102A4F
:1004E0000ED11A1F126803681A430D4B08331A60A5
:1004F0001A1D126803681A43094B0C331A600DE089
:100500000749427911440A6803681A430A6005E002
:10051000027911440A6803689A430A607047000030
:100520000004014030B5044604254FF4302000F0AB
:100530006FF80546042D17D10C48006940F0020001
:100540000A49086108464461006940F040000861BA
:100550004FF4302000F05CF805460448006941F68D
:10056000FD71084001490861284630BD0020024065
:1005700004200B49C96801F0010109B101200EE016
:100580000749C96801F0040109B1022007E00449E4
:10059000C96801F0100109B1032000E00420704790
:1005A000002002400348006940F0800001490861D2
:1005B000704700000020024070B504460D46042636
:1005C000F00200F025F80646042E11D10948006912
:1005D00040F00100074908612580F00200F018F89A
:1005E00006460448006941F6FE7108400149086169
:1005F000304670BD0020024002480349486003486D
:10060000486070472301674500200240AB89EFCD69
:1006100000B502460423FFF7ABFF034603E0FFF7F4
:10062000A7FF0346521E012B01D1002AF7D102B9C0
:100630000523184600BD000030B500228B071C0FB3
:100640000F2303FA04F20B4B8C1053F8243093431E
:10065000084C8D1044F8253023468C1053F8243074
:100660008C07240F00FA04F42343024C8D1044F845
:10067000253030BD080001402DE9F041024600253B
:100680000026002000230024002791F803C00CF06E
:100690000F0591F803C00CF0100CBCF1000F03D053
:1006A00091F802C04CEA050591F800C0BCF1000FBA
:1006B00031D0146800202BE04FF0010C0CFA00F34D
:1006C000B1F800C00CEA03069E4220D183004FF02F
:1006D0000F0C0CFA03F7BC4305FA03FC4CEA0404C4
:1006E00091F803C0BCF1280F06D14FF0010C0CFAB1
:1006F00000FCC2F814C00AE091F803C0BCF1480F36
:1007000005D14FF0010C0CFA00FCC2F810C0401CDF
:100710000828D1D31460B1F800C0BCF1FF0F34DD5C
:10072000546800202EE000F1080C4FF0010808FA90
:100730000CF3B1F800C00CEA03069E4221D18300FD
:100740004FF00F0C0CFA03F7BC4305FA03FC4CEA1C
:10075000040491F803C0BCF1280F05D100F1080C86
:1007600008FA0CF8C2F8148091F803C0BCF1480FE5
:1007700007D100F1080C4FF0010808FA0CF8C2F894
:100780001080401C0828CED35460BDE8F08102469A
:10079000002093680B400BB1012000E0002070475F
:1007A00000BFFEE708B50121102000F055F8222017
:1007B000ADF8000048208DF8030069460148FFF7B6
:1007C0005BFF08BD0010014000BFFEE7704700005E
:1007D00070B5002100230F22C47804B3154C24689F
:1007E00004F4E064C4F5E064210AC1F10403CA40E2
:1007F000447804FA03F184781440214309010E4C33
:100800000678A155047804F01F050124AC40057852
:100810006D11AD0005F1E025C5F8004109E004784F
:1008200004F01F050124AC40044D0678761145F80C
:10083000264070BD0CED00E000E400E080E100E047
:1008400002490143024A1160704700000000FA05A6
:100850000CED00E07047000029B1064A926902439E
:10086000044B9A6104E0034A92698243014B9A6106
:10087000704700000010024030B500210022002423
:1008800000232D4D6D6805F00C0121B1042905D020
:10089000082923D105E0294D056022E0274D056098
:1008A0001FE0254D6D6805F47012234D6D6805F449
:1008B0008034022505EB92421CB9214D5543056059
:1008C0000BE01D4D6D6805F400351DB11C4D554301
:1008D000056002E0194D5543056002E0174D0560C3
:1008E00000BF00BF144D6D6805F0F0010909154DFA
:1008F0006B5C0568DD4045600F4D6D6805F4E06197
:10090000090A104D6B5C4568DD4085600A4D6D68D5
:1009100005F46051C90A0B4D6B5C4568DD40C5604C
:10092000054D6D6805F44041890B074D6B5CC5684A
:10093000B5FBF3F5056130BD0010024000127A00EE
:1009400000093D00280000203800002030B5034693
:100950000C461546002207E0184600F008F824F877
:1009600012009B1C501C82B2AA42F5DB30BD01462E
:10097000088870472DE9F05F80468A461746B8F12F
:10098000006F02D33348804501D3BDE8F09FFFF7E5
:1009900033FEA8F1006B4FEADB25CBF34909C9F51B
:1009A0008064A74200DC3C464DE04FF0006101EB63
:1009B000C5204A142849FFF7C9FF00260BE009EBC0
:1009C0000600254931F810004FF6FF71884200D02B
:1009D00003E0701C86B2A642F1DB00BFA6421BDA20
:1009E0004FF0006101EBC520FFF79CFD002608E0F9
:1009F0003AF8160006EB0901174A22F81100701C9C
:100A000086B2A642F4DB4FF0006101EBC5204A1428
:100A1000114900F023F804E022465146404600F018
:100A20001DF8A74200D10FE06D1C4FF000090AEB42
:100A3000440AA044381B87B2B7F5806F02DD4FF43B
:100A4000806400E03C46B0E700BFFFF7ABFD00BFAD
:100A50009BE7000000000808440000202DE9F04159
:100A600005460E461746002407E036F814102846BF
:100A7000FFF7A2FDAD1C601C84B2BC42F5DBBDE8F3
:100A8000F081704710B500F001F810BD0CB50020E2
:100A9000019000903348006840F48030314908608C
:100AA00000BF3048006800F4003000900198401CFE
:100AB0000190009818B90198B0F5A06FF1D12948BC
:100AC000006800F4003010B10120009001E0002027
:100AD00000900098012843D12348006840F010009E
:100AE000214908600846006820F0030008600846B5
:100AF000006840F0020008601A48406819494860E0
:100B00000846406848600846406840F48060486095
:100B10000846406820F47C1048600846406840F46D
:100B2000E81048600846006840F08070086000BF28
:100B30000C48006800F000700028F9D009484068AF
:100B400020F00300074948600846406840F0020072
:100B5000486000BF0348406800F00C000828F9D145
:100B60000CBD00000010024000200240042808D103
:100B70004FF0E021096941F004014FF0E0221161DA
:100B800007E04FF0E021096921F004014FF0E02275
:100B9000116170477047000010B51348006840F0BD
:100BA00001001149086008464068104908400E4994
:100BB0004860084600680E4908400B49086008462E
:100BC000006820F4802008600846406820F4FE0099
:100BD00048604FF41F008860FFF754FF4FF000603B
:100BE0000449086010BD0000001002400000FFF83A
:100BF000FFFFF6FE08ED00E010B50121064800F009
:100C00003CF840B10121044800F028F8034800787E
:100C1000401C0249087010BD000400404100002043
:100C200010B504460021064800F03AF82146044871
:100C300000F034F80121024800F013F810BD000064
:100C40000004004010B50021034800F00AF800211C
:100C5000014800F025F810BD00040040CA4302829C
:100C6000704721B1028842F00102028004E002884C
:100C70004FF6FE731A400280704730B502460020DE
:100C800000230024158A05EA0103958905EA010479
:100C900013B10CB1012000E0002030BD8185704708
:100CA0008184704710B53248008800F02000002889
:100CB0005DD02F48001D0088C4B22E480088401C1B
:100CC0002C490880012C08D12B480078012804D039
:100CD00001202949087027490880264800880128F2
:100CE00008D1042C06D10621214800F0EBF80120A0
:100CF0002249087020480078012838D11D48008812
:100D0000022806D11E480078844202D11A48447055
:100D10002DE018480088032807D117484078E143A0
:100D2000884202D11448847021E013484078144965
:100D3000097888421BD1104840780F498978C94307
:100D4000884214D10B480088842806DA09480088B4
:100D5000001F0949C91C0C5409E006480088842872
:100D600005D1054880F8834001200649087010BD70
:100D70000038014024000020440800201500002015
:100D80001C0000201D00002021B1828942F4005285
:100D9000828104E082894DF6FF731A408281704798
:100DA000F0B50346002400260025002040F66A170F
:100DB000B94200D100BF1846C1F3421401F01F062A
:100DC000012707FA06F5012C01D10C3004E0022CB2
:100DD00001D1103000E014301AB107682F430760CA
:100DE00002E00768AF430760F0BD00002DE9F0475F
:100DF00086B005460E460024A24600BFA146002745
:100E0000B08900B100BF2F462C8A4CF6FF70044019
:100E1000F08804432C82AC894EF6F3100440B0886D
:100E200031890843718908430443AC81AC8A4FF689
:100E3000FF400440B0890443AC8201A8FFF71CFDC9
:100E40001F48874202D1DDF810A001E0DDF80CA0B8
:100E5000A88900F4004040B10AEBCA0000EB0A1078
:100E600031684900B0FBF1F807E00AEBCA0000EB7B
:100E70000A1031688900B0FBF1F86420B8FBF0F08B
:100E800004012009642101FB1089A88900F40040B5
:100E900040B1322000EBC900B0FBF1F000F00700D8
:100EA000044308E0322000EB09106421B0FBF1F0AC
:100EB00000F00F0004432C8106B0BDE8F08700006D
:100EC00000380140C1F308028280704700BFFEE78E
:100ED000014600BF704701460023002204E0885C01
:100EE0001844C3B2501CC2B2832AF8DB91F88300C5
:100EF000984201D1002070470120FCE710B56FF047
:100F00000400FFF733FE0A4800680A49B0FBF1F01D
:100F1000094908700846007800EB4001C1EBC01099
:100F20004FF6FF7101EAC0000449088010BD0000BF
:100F30000000002000127A00160000201800002097
:100F40000146114A12884A434FF0E0235A610022B9
:100F50009A611A46126942F001021A6100BF4FF00D
:100F6000E022106900F001021AB100F48032002A78
:100F7000F5D04FF0E022126922F001024FF0E02399
:100F80001A6100229A6170471800002000BF054ACC
:100F9000128802F04002002AF9D0C2B2014B1B1D98
:100FA0001A8070470038014010B504462068074990
:100FB0000840B0F1005F08D160680549086020680A
:100FC000FFF704F902480068804710BD0000FE2FBB
:100FD0003C0000202DE9F05F06460F4690460024B5
:100FE000B3463D46A1461CE068784FEA002A2878BF
:100FF00050441FFA80FAAD1C2046611C8CB20E4989
:1010000021F810A0B4F5806F07D100244FF480625E
:101010005846FFF7AFFC0BF5006B09F102001FFA11
:1010200080F9C145E0D324B1224603495846FFF771
:10103000A1FCBDE8F09F0000C8100020FFF75EFF94
:101040004FF4A060FFF7FCFBFFF7ACFBFFF7D8F90C
:101050004FF4E13000F040F81AE00E480078012823
:1010600001D100F089F80C480078012810D10BA0BC
:10107000FFF7D2F81048406800F07F40B0F1006FF1
:1010800003D10D48FFF790FF02E00CA0FFF7C4F872
:10109000E3E700001400002015000020BFAACABC2E
:1010A000D6B4D0D0464C415348D3C3BBA7B4FAC240
:1010B000EB21210D0A00000000000108B7C7464CD3
:1010C000415348D3A6D3C3B3CCD0F22CCEDEB7A8BD
:1010D000D6B4D0D0210D0A0010B586B00446012147
:1010E00044F20400FFF7B8FB4FF40070ADF81400B1
:1010F00003208DF8160018208DF8170005A91C484C
:10110000FFF7BAFA4FF48060ADF8140004208DF8B0
:10111000170005A91648FFF7AFFA25208DF8000043
:1011200003208DF801008DF8020001208DF80300E6
:101130006846FFF74DFB01940020ADF80800ADF8BC
:101140000A00ADF80C00ADF810000C20ADF80E0050
:1011500001A90848FFF74AFE012240F2255105483F
:10116000FFF71EFE01210348FFF70EFE06B010BD7B
:10117000000801400038014010B50446022C03D19C
:1011800043203549087004E0012C02D11520324972
:101190000870314801783148FFF794FE42F20F7031
:1011A000FFF73EFD00BF2E4800783C2803DA2D48AB
:1011B00000780128F7D1FFF745FD47E0284800787F
:1011C0003C280BD100202849088084212748FFF7BC
:1011D0002FF815212148FFF775FE23E02348FFF77C
:1011E0007AFE78B122490978491E224A02EBC110E1
:1011F00080221E49C91CFFF7EDFE06211748FFF7A4
:1012000061FE03E015211548FFF75CFE002016493A
:10121000088017480078401C15490870842113483D
:10122000FFF706F800200F4908700D49087042F2D8
:101230000F70FFF7F5FC00BF094800780A2803DAB1
:10124000084800780128F7D1FFF7FCFC0748007830
:101250000128B3D0002010BD40000020003801401C
:10126000410000201D000020240000204408002030
:101270001C00002000000108981200080000002057
:10128000440000006C010008DC120008440000204B
:10129000841800008801000800A24A040000000031
:1012A0000000000001020304060708090000000016
:1012B000000000000100000000000000000000002D
:1012C00000000000010203040102030406070809EC
:0C12D000020406080000000043000000BB
:04000005080001D519
:00000001FF
