:020000040800F2
:10000000A0070020D50100081F06000817060008F9
:100010001B0600086D0400085312000800000000D1
:100020000000000000000000000000009D0E00081D
:10003000FB04000800000000B30B0008CD0F00080F
:10004000EF010008EF010008EF010008EF010008D0
:10005000EF010008EF010008EF010008EF010008C0
:10006000EF010008EF010008EF010008EF010008B0
:10007000EF010008EF010008EF010008EF010008A0
:10008000EF010008EF010008EF010008EF01000890
:10009000EF010008EF010008EF010008EF01000880
:1000A000EF010008EF010008EF010008EF01000870
:1000B000EF010008EF010008EF010008EF01000860
:1000C000EF010008EF010008EF010008EF01000850
:1000D000EF01000831100008EF010008EF010008EF
:1000E000EF010008EF010008EF010008EF01000830
:1000F000EF010008EF010008EF010008EF01000820
:10010000EF010008EF010008EF010008EF0100080F
:10011000EF010008EF010008EF010008EF010008FF
:10012000EF010008EF010008EF010008EF010008EF
:1001300000F002F800F03FF80AA090E8000C8244BA
:100140008344AAF10107DA4501D100F034F8AFF297
:10015000090EBAE80F0013F0010F18BFFB1A43F0A5
:10016000010318470C1600002C160000103A24BF9B
:1001700078C878C1FAD8520724BF30C830C144BF0C
:1001800004680C607047000000230024002500264E
:10019000103A28BF78C1FBD8520728BF30C148BFEA
:1001A0000B607047782900F07780002070471FB5FA
:1001B0001FBD10B510BD00F027F91146FFF7F7FF7E
:1001C00001F0BCF800F045F903B4FFF7F2FF03BCFF
:1001D00001F05AF80948804709480047FEE7FEE762
:1001E000FEE7FEE7FEE7FEE7FEE7FEE7FEE7FEE7E7
:1001F00004480549054A064B70470000D10F000826
:1002000031010008A0010020A0070020A003002069
:10021000A0030020704700000FB4044910B503AAE2
:10022000029800F0C3F810BC5DF814FB48000020F1
:100230002DE9F0410E460446002020622046E16888
:10024000884730B3252805D0D4E901219047206A9A
:10025000401CF2E7E168204600278847050018D0D7
:10026000A5F14100192802D820354FF40067324625
:10027000294620462760FFF795FF40B1012804D0AA
:10028000F61D26F007060836D8E7361DD6E72846BD
:10029000DAE7206ABDE8F08170B504460D462146D4
:1002A0001068AFF300802188090502D50F4A7A440F
:1002B00002E00E4A7A440E32002104F1240305E0E4
:1002C00000F00F060009965D5E54491C0028F7D126
:1002D00020780023000704D5702D02D009B1022335
:1002E00011322046BDE8704000F006B896140000B8
:1002F00070477047704770472DE9F0470D469946A3
:100300009246044600F124080168880604D5E06995
:1003100021F01001216000E00120A84201DD471B0F
:1003200000E00027A1697A1902EB0900081AA06110
:100330002078C00602D42046AFF30080002608E0F3
:10034000D4E901211AF806009047206A401C761C67
:1003500020624E45F4DB2078C0060AD52046AFF374
:10036000008006E0D4E9012130209047206A401C3B
:100370002062381EA7F10107F4DC07E0D4E901216F
:1003800018F805009047206A401C2062281EA5F13D
:100390000105F3DC2046AFF300802078000602D58B
:1003A0000220BDE8F0870120FBE70000074B70B595
:1003B0000D467B4400F011F80446284600F020F872
:1003C00010B14FF0FF3070BD204670BD6B0F0000C4
:1003D00001694A1C02610878704700B58FB0CDE909
:1003E00001310021059105497944CDE903101146F9
:1003F0006846FFF71DFF0FB000BD0000E5FFFFFFDF
:10040000007B00F080007047754600F02BF8AE4688
:1004100005006946534620F00700854618B020B510
:10042000FFF7E6FEBDE820404FF000064FF0000762
:100430004FF000084FF0000B21F00701AC46ACE88C
:10044000C009ACE8C009ACE8C009ACE8C0098D46F9
:10045000704710B50446AFF300802046BDE8104059
:10046000FFF7B2BE004870473C01002000BFFEE726
:100470002DE9F0410746884615460421052000F085
:100480002DF80021012000F0E7FE80210A2000F075
:1004900006FD002405E0395D092000F0DDFE601C4A
:1004A000C4B24445F7DB0321012000F0D5FEFF2450
:1004B00000BF052000F02AFC0646601EC4B21CB135
:1004C00006F004000028F4D0222000F01FFC287061
:1004D000212000F01BFC6870BDE8F08170B5054676
:1004E0000C460026284600F011FC46B226EA04001D
:1004F000C1B2284600F0B0FE70BD70472DE9F04152
:10050000024600250026002000230024002791F841
:1005100003C00CF00F0591F803C00CF0100CBCF1F7
:10052000000F03D091F802C04CEA050591F800C015
:10053000BCF1000F31D0146800202BE04FF0010C0B
:100540000CFA00F3B1F800C00CEA03069E4220D179
:1005500083004FF00F0C0CFA03F7BC4305FA03FCC1
:100560004CEA040491F803C0BCF1280F06D14FF007
:10057000010C0CFA00FCC2F814C00AE091F803C0A8
:10058000BCF1480F05D14FF0010C0CFA00FCC2F889
:1005900010C0401C0828D1D31460B1F800C0BCF1D1
:1005A000FF0F34DD546800202EE000F1080C4FF0FE
:1005B000010808FA0CF3B1F800C00CEA03069E42E9
:1005C00021D183004FF00F0C0CFA03F7BC4305FA5E
:1005D00003FC4CEA040491F803C0BCF1280F05D1D8
:1005E00000F1080C08FA0CF8C2F8148091F803C066
:1005F000BCF1480F07D100F1080C4FF0010808FAD0
:100600000CF8C2F81080401C0828CED35460BDE816
:10061000F0810161704700BFFEE700BFFEE7704751
:1006200070B5002100230F22C47804B3154C246850
:1006300004F4E064C4F5E064210AC1F10403CA4093
:10064000447804FA03F184781440214309010E4CE4
:100650000678A155047804F01F050124AC40057804
:100660006D11AD0005F1E025C5F8004109E0047801
:1006700004F01F050124AC40044D0678761145F8BE
:10068000264070BD0CED00E000E400E080E100E0F9
:1006900010B503211420FFF721FF10BD10B5142061
:1006A00000F034FB044604F0030018B903211420C1
:1006B00000F0F5FB10BDF0B587B005460027082116
:1006C0000846FFF70BFF00210D2000F0C5FD80213B
:1006D0000E20FFF703FF93208DF8040020208DF8F3
:1006E000050006A801AB022201A900900C2000F031
:1006F00053F806468EB9002407E001A8005D28558E
:1007000001A8005D4740601CC4B2042CF5DB01A8C1
:10071000005DB84201D06FF0010680210E2000F08C
:10072000BEFB304607B0F0BD2DE9F04387B006466A
:100730000F46904699468DF804608DF805700024A8
:1007400006E018F8041001AAA01C1154601CC4B2E1
:10075000062CF6DB002407E019F8041001AA04F1C6
:1007600008001154601CC4B2062CF5DB06A801ABCE
:100770000C2201A900900E2000F00EF805462DB9BC
:10078000082000F0C3FA00F0080008B96FF0010576
:10079000284607B0BDE8F0832DE9FE4F064688469F
:1007A00091469A46DDF830B06FF0010002900020CB
:1007B000019000900C2E06D00E2E09D1122001902F
:1007C0001020009005E0772001903020009000E09C
:1007D00000BF00BF019840F08001022000F03CFD06
:1007E00080210420FFF77AFE0021012000F034FD73
:1007F00080210A2000F053FB002505E018F80510C1
:10080000092000F029FD6D1C4D45F7D3314601202C
:1008100000F022FD0C2E03D180210D2000F03FFBC3
:100820004FF4FA6500BF042000F070FA04466D1E14
:1008300035B104F0010018B9009820400028F2D02A
:1008400080210D20FFF74AFE9DB3062000F05EFADE
:1008500000F01B0070BB002002900198204000F0C7
:10086000010010B14FF0FF3002900C2E25D10A206C
:1008700000F04CFA04460C2000F048FA00F007079C
:100880002FB1601E07EBC000CBF8000002E0E000D3
:10089000CBF8000004B90124122C00DD122400253D
:1008A00005E0092000F032FA0AF805006D1CA542A7
:1008B000F7D302E06FF00100029080210C2000F0DD
:1008C000EEFA0021012000F0C7FC0298BDE8FE8F7F
:1008D000F0B587B005460E4630208DF804008DF83F
:1008E00005500DF10602022101A8FFF7C1FD06A87F
:1008F00001AB042201A900900C20FFF74DFF074631
:1009000067B90698902809D1002404E001A8005D89
:100910003055601CC4B2102CF8DB01E06FF0010709
:10092000384607B0F0BD70B588B005460C460821C2
:100930000846FFF7D3FD07210D2000F08DFC0321B1
:10094000142000F0ACFA8DF8085007A802AB012281
:1009500002A900900C20FFF71FFF06464EB907982A
:10096000102806D19DF8080020709DF809006070DD
:1009700001E06FF00106304608B070BD10B50120EF
:100980001849086000F0A6FC00201749C1F898013A
:10099000012000F09FFC01201249086000F09AFC41
:1009A0000F21012000F058FC012000F093FC3D21B4
:1009B000112000F051FC1E212D2000F04DFC0021E3
:1009C0002C2000F049FC8D212A2000F045FC3E211E
:1009D0002B2000F041FC4021152000F03DFC0020C0
:1009E00010BD0000988121420080214270B588B07E
:1009F000054693208DF8080070208DF8090000202E
:100A00008DF80E0000240BE0295D02AAA01C1154F1
:100A10009DF80E00295D48408DF80E00601CC4B2A0
:100A2000042CF1DB0DF10F02072102A8FFF720FDD6
:100A300008210846FFF752FD07A802AB092202A9C8
:100A400000900C20FFF7A8FE064626B90798182844
:100A500001D1002601E06FF00106304608B070BDFC
:100A6000F0B587B006460D4617468DF804608DF840
:100A700005500DF10602022101A8FFF7F9FC06A8B6
:100A800001AB042201A900900C20FFF785FE04466B
:100A900044B90698042805D19DF8040000F00F0021
:100AA0000A2801D06FF00104A4B93868019002AAA5
:100AB000042101A8FFF7DCFC0020069006A801AB8A
:100AC000062201A900900C20FFF766FE0446A01C38
:100AD00000B10024FCB9B0208DF804008DF8055059
:100AE0000DF10602022101A8FFF7C2FC06A801AB26
:100AF000042201A900900C20FFF74EFE044644B9E1
:100B00000698042805D19DF8040000F00F000A287B
:100B100001D06FF00104204607B0F0BDF0B587B0FA
:100B200006460F46A0208DF804008DF805600DF1F3
:100B30000602022101A8FFF79BFC06A801AB0422D4
:100B400001A900900C20FFF727FE054645B906983D
:100B5000042805D19DF8040000F00F000A2801D0F8
:100B60006FF0010515BB002404E0385D01A90855AC
:100B7000601CC4B2102CF8DB05AA102101A8FFF7F5
:100B800077FC06A801AB122201A900900C20FFF708
:100B900003FE054645B90698042805D19DF80400D2
:100BA00000F00F000A2801D06FF00105284607B0B9
:100BB000F0BD704708B50121082000F02DF84FF472
:100BC000A070ADF8000010208DF8030003208DF810
:100BD000020069460648FFF791FC4FF48051044833
:100BE000FFF717FD01200349086000F0ABF808BDCE
:100BF000000C0140A081214229B1064AD26902437A
:100C0000044BDA6104E0034AD2698243014BDA61A2
:100C1000704700000010024029B1064A9269024361
:100C2000044B9A6104E0034A92698243014B9A6142
:100C3000704700000010024030B50021002200245F
:100C400000232D4D6D6805F00C0121B1042905D05C
:100C5000082923D105E0294D056022E0274D0560D4
:100C60001FE0254D6D6805F47012234D6D6805F485
:100C70008034022505EB92421CB9214D5543056095
:100C80000BE01D4D6D6805F400351DB11C4D55433D
:100C9000056002E0194D5543056002E0174D0560FF
:100CA00000BF00BF144D6D6805F0F0010909154D36
:100CB0006B5C0568DD4045600F4D6D6805F4E061D3
:100CC000090A104D6B5C4568DD4085600A4D6D6812
:100CD00005F46051C90A0B4D6B5C4568DD40C56089
:100CE000054D6D6805F44041890B074D6B5CC56887
:100CF000B5FBF3F5056130BD0010024000127A002B
:100D000000093D004E0000205E00002070B5044642
:100D100000260020094908607E2000EA440040F0D7
:100D20008005284600F058F8002000F055F80646E7
:100D300001200349C1F8A001304670BDA0812142C5
:100D40000080214200B587B001210820FFF764FF31
:100D500001218803FFF750FF4FF46040ADF8180001
:100D600018208DF81B0003208DF81A0006A91848DA
:100D7000FFF7C4FB4FF460411548FFF74AFC002021
:100D8000ADF804004FF48270ADF806000020ADF815
:100D900008000220ADF80A000120ADF80C00400266
:100DA000ADF80E003820ADF810000020ADF81200AC
:100DB0000720ADF8140001A9064800F051F8012100
:100DC000044800F033F8FF2000F006F807B000BD3B
:100DD000000C01400038004070B50546002405E0D5
:100DE000601CC4B2C82C01DD002070BD02210E4879
:100DF00000F028F80028F3D029460B4800F02EF820
:100E0000002405E0601CC4B2C82C01DD0020ECE722
:100E10000121054800F016F80028F3D0024800F040
:100E20001AF8C0B2E1E700000038004021B10288A2
:100E300042F04002028004E002884FF6BF731A407D
:100E4000028070470246002013890B400BB101203D
:100E500000E0002070470146888970478181704713
:100E600010B50022028802F441520B884C882343BB
:100E70008C882343CC8823430C8923434C89234308
:100E80008C892343CC8923431A430280838B4FF2FE
:100E9000FF74234083830B8A038210BD704770B5B3
:100EA00005460C4600262846FFF730FF46B246EAC4
:100EB0000400C1B2284600F0CFF970BD10B500F0B3
:100EC00001F810BD0CB50020019000903348006877
:100ED00040F480303149086000BF3048006800F4B9
:100EE000003000900198401C0190009818B90198BA
:100EF000B0F5A06FF1D12948006800F4003010B1BE
:100F00000120009001E0002000900098012843D1CA
:100F10002348006840F01000214908600846006836
:100F200020F0030008600846006840F002000860F6
:100F30001A484068194948600846406848600846B1
:100F4000406840F4806048600846406820F47C10A7
:100F500048600846406840F4E81048600846006869
:100F600040F08070086000BF0C48006800F000701E
:100F70000028F9D00948406820F00300074948607C
:100F80000846406840F00200486000BF03484068DF
:100F900000F00C000828F9D10CBD00000010024040
:100FA00000200240042808D14FF0E021096941F0F7
:100FB00004014FF0E022116107E04FF0E0210969E0
:100FC00021F004014FF0E0221161704770470000EA
:100FD00010B51348006840F0010011490860084648
:100FE0004068104908400E494860084600680E49AC
:100FF00008400B4908600846006820F4802008601B
:101000000846406820F4FE0048604FF41F008860E6
:10101000FFF754FF4FF000600449086010BD000066
:10102000001002400000FFF8FFFFF6FE08ED00E0B0
:1010300010B540F225511D4800F04AF810B31B4886
:1010400000F002F9C4B21A48008800F40040C8B9A0
:101050001748008800F4804060B10A2C03D00020BB
:101060001349088020E01248008840F400401049ED
:10107000088019E00D2C06D10D48008840F480400E
:101080000B49088010E00A480088C0F30D000949A8
:101090000C5407480088401C054908800846008811
:1010A000C72801DD0020088010BD00000038014085
:1010B0004C0000207400002021B1828942F40052CB
:1010C000828104E082894DF6FF731A408281704765
:1010D00070B50246002400230025002040F66A1661
:1010E000B14200D100BFC1F3421501F01F03012638
:1010F00006FA03F3012D02D19689334006E0022D52
:1011000002D1168A334001E0968A33400C12012640
:1011100006FA04F41688344013B10CB1012000E043
:10112000002070BDF0B503460024002600250020F5
:1011300040F66A17B94200D100BF1846C1F3421405
:1011400001F01F06012707FA06F5012C01D10C302A
:1011500004E0022C01D1103000E014301AB107680D
:101160002F43076002E00768AF430760F0BD00004F
:101170002DE9F04786B005460E460024A24600BF82
:10118000A1460027B08900B100BF2F462C8A4CF63B
:10119000FF700440F08804432C82AC894EF6F310B3
:1011A0000440B08831890843718908430443AC8105
:1011B000AC8A4FF6FF400440B0890443AC8201A8DA
:1011C000FFF73AFD1F48874202D1DDF810A001E089
:1011D000DDF80CA0A88900F4004040B10AEBCA0079
:1011E00000EB0A1031684900B0FBF1F807E00AEBA8
:1011F000CA0000EB0A1031688900B0FBF1F86420E6
:10120000B8FBF0F004012009642101FB1089A889D2
:1012100000F4004040B1322000EBC900B0FBF1F017
:1012200000F00700044308E0322000EB09106421BD
:10123000B0FBF1F000F00F0004432C8106B0BDE8D4
:10124000F08700000038014001468888C0F308009C
:10125000704700BFFEE7000070B504460D46002051
:10126000074908607E2000EA44063046FFF7B4FDD7
:101270002846FFF7B1FD01200249C1F8A00170BD69
:10128000A081214200802142014600BF704700003A
:1012900010B56FF00400FFF785FE0A4800680A49A0
:1012A000B0FBF1F0094908700846007800EB4001F6
:1012B000C1EBC0104FF6FF7101EAC000044908807D
:1012C00010BD00003000002000127A004400002011
:1012D000460000200146114A12884A434FF0E0239D
:1012E0005A6100229A611A46126942F001021A619B
:1012F00000BF4FF0E022106900F001021AB100F4C3
:101300008032002AF5D04FF0E022126922F001026B
:101310004FF0E0231A6100229A61704746000020D6
:1013200000BF054A128802F04002002AF9D0C2B27A
:10133000014B1B1D1A807047003801401FB5FFF795
:10134000A7FF4FF4E13000F0AFF9FFF733FCFFF7F0
:1013500015FBFFF79DF9FFF7A1F9F3E003A9522070
:10136000FFF7E1FA00287DD19DF80C00042806D192
:101370009DF80D0018B974A0FEF74EFF2FE09DF800
:101380000C00022806D19DF80D0018B971A0FEF7D7
:1013900043FF24E09DF80C00442806D19DF80D0081
:1013A00018B96FA0FEF738FF19E09DF80C00082867
:1013B00006D19DF80D0018B96DA0FEF72DFF0EE0C7
:1013C0009DF80C00442807D19DF80D00032803D197
:1013D0006AA0FEF721FF02E06BA0FEF71DFF01A847
:1013E000FFF769F90028BED19DF8070000909DF82D
:1013F00006309DF805209DF8041066A0FEF70CFF4E
:1014000001A8FFF7F3FA0028ADD168A0FEF704FFAA
:1014100001AB6C4A09216020FFF786F9002838D11A
:1014200069A0FEF7F9FE6B490920FFF751FA80B970
:1014300069A0FEF7F1FE002406E06648015D6AA09F
:10144000FEF7EAFE601CC4B2102CF6DB67A0FEF7C4
:10145000E3FE67490920FFF761FBD0B965A0FEF7FD
:10146000DBFE00E06AE05B490920FFF731FA80B952
:1014700063A0FEF7D1FE002406E05648015D5AA0A5
:10148000FEF7CAFE601CC4B2102CF6DB57A0FEF7B4
:10149000C3FE5FA0FEF7C0FE01AB4A4A02216020F6
:1014A000FFF742F9002849D147A0FEF7B5FE63498E
:1014B0000220FFF733FB002840D14EA0FEF7ACFE20
:1014C0005F4A0221C120FFF7CBFAC0B95DA0FEF749
:1014D000A3FE40490220FFF7FBF980B95EA0FEF7AA
:1014E0009BFE002406E03B48015D3FA0FEF794FE12
:1014F000601CC4B2042CF6DB3CA0FEF78DFE5D4AF6
:101500000221C020FFF7ACFAC0B95BA0FEF784FE51
:1015100030490220FFF7DCF980B95CA0FEF77CFEC1
:10152000002406E02B48015D2FA0FEF775FE601C2D
:10153000C4B2042CF6DB2DA0FEF76EFE4FF47A70D9
:10154000FFF7C8FE0AE700004D464F6E652D533584
:10155000300D0A004D464F6E652D5337300D0A0091
:101560004D462D556C7472614C696768740D0A00A4
:101570004D462D50726F0D0A000000004D4620446C
:1015800065736972650D0A00556E6B6E6F776E0D2F
:101590000A000000436172642049642069733A259F
:1015A000782578257825780D0A00000073656C652C
:1015B0006374206361726420737563636573730D74
:1015C0000A000000000000206175746820706173DB
:1015D000730D0A00640000206F6C642076616C75E6
:1015E00065203D2000000000257800000D0A000065
:1015F000060000207772697465206F6B0D0A000089
:101600006E65772076616C7565203D2000000000D6
:101610002D2D2D2D2D2D2D2D2D2D2D2D2D2D2D2DFA
:101620002D2D2D2D2D2D2D2D2D2D2D2D2D2D2D2DEA
:101630002D2D2D2D2D2D2D2D2D0D0A0016000020C8
:1016400026000020726563686172676520737563A8
:10165000636573730D0A0000726563686172676584
:10166000206166746572206E65772076616C7565A1
:10167000203D20002A0000206368617267652073A6
:101680007563636573730D0A00000000636861721F
:101690006765206166746572206E65772076616C7F
:1016A0007565203D2000000010B586B0044601217C
:1016B00044F20400FFF7B0FA4FF40070ADF81400E4
:1016C00003208DF8160018208DF8170005A91C4876
:1016D000FEF714FF4FF48060ADF8140004208DF87D
:1016E000170005A91648FEF709FF25208DF8000010
:1016F00003208DF801008DF8020001208DF8030011
:101700006846FEF78DFF01940020ADF80800ADF8A3
:101710000A00ADF80C00ADF810000C20ADF80E007A
:1017200001A90848FFF724FD012240F22551054890
:10173000FFF7F8FC01210348FFF7BEFC06B010BD1F
:10174000000801400038014030313233343536373B
:1017500038394142434445464030580030313233F5
:1017600034353637383961626364656640307800F5
:101770009017000800000020640000006C010008C1
:10178000F4170008640000203C07000088010008EE
:10179000FFFFFFFFFFFF0001020304050607080922
:1017A0000A0B0C0D0D0000000000FFFFFFFF000002
:1017B000000002FD02FD640000000A0000000000BD
:1017C00000A24A040000000000000000010203041F
:1017D00006070809000000000000000000000000EB
:1017E00000000102030401020304060708090204C1
:0417F00006080000E7
:04000005080001D519
:00000001FF
