:020000040800F2
:10000000300F0020DD010008410900081509000833
:100010003D09000829050008D9100008000000006B
:10002000000000000000000000000000170C0008A5
:100030002D05000800000000C9090008290D00086E
:10004000F7010008F7010008F7010008F7010008B0
:10005000F7010008F7010008F70100083105000862
:10006000F7010008F7010008F7010008F701000890
:10007000F7010008F7010008F7010008F701000880
:10008000F7010008F7010008F7010008F701000870
:10009000F7010008F7010008F70100084D05000806
:1000A000F7010008F7010008F7010008F701000850
:1000B000F70100088D0D0008F7010008F70100089E
:1000C000F7010008F7010008F7010008F701000830
:1000D000F7010008590F0008F7010008F7010008B0
:1000E000F7010008F7010008F7010008F701000810
:1000F000F7010008F7010008F7010008F701000800
:10010000F7010008F7010008F7010008F7010008EF
:10011000F7010008F7010008F7010008F7010008DF
:10012000F7010008F7010008F7010008F7010008CF
:1001300000F002F800F03FF80AA090E8000C8244BA
:100140008344AAF10107DA4501D100F034F8AFF297
:10015000090EBAE80F0013F0010F18BFFB1A43F0A5
:10016000010318471414000034140000103A24BF8F
:1001700078C878C1FAD8520724BF30C830C144BF0C
:1001800004680C607047000000230024002500264E
:10019000103A28BF78C1FBD8520728BF30C148BFEA
:1001A0000B607047642900F07B80002070471FB50A
:1001B0001FBD10B510BD00F085F91146FFF7F7FF20
:1001C00001F050F800F0A3F903B4FFF7F2FF03BC0D
:1001D00000F084FF80F308887047000009488047DA
:1001E00009480047FEE7FEE7FEE7FEE7FEE7FEE719
:1001F000FEE7FEE7FEE7FEE704480549054A064B31
:10020000704700002D0D0008310100083009002062
:10021000300F0020300B0020300B00207047000012
:100220000FB4044910B503AA029800F0F5F810BC09
:100230005DF814FB200000202DE9F0410E46044635
:10024000002020622046E168884730B3252805D089
:10025000D4E901219047206A401CF2E7E16820467A
:1002600000278847050018D0A5F14100192802D8B9
:1002700020354FF400673246294620462760FFF7B5
:1002800091FF40B1012804D0F61D26F0070608367C
:10029000D8E7361DD6E72846DAE7206ABDE8F081C0
:1002A0002DE9F0410646002410687529314616A54F
:1002B00010D0AFF30080002802DA404213A507E017
:1002C00031688A0701D512A502E0490704D511A5B6
:1002D000012401E0AFF3008000210A2206F1240787
:1002E00009E0B0FBF2FCB0FBF2F302FB1C00303083
:1002F00078541846491C0028F3D123462A46304634
:10030000BDE8F04100F02EB8000000002D00000014
:100310002B000000200000004FF000020429C0F074
:10032000128010F0030C00F08B80CCF1040CBCF1B7
:10033000020F18BF00F8012BA8BF20F8022BA1EB79
:100340000C0100F07DB85FEAC17C24BF00F8012BEE
:1003500000F8012B48BF00F8012B70477047704729
:10036000704770472DE9F0470D469946924604467E
:1003700000F124080168880604D5E06921F0100125
:10038000216000E00120A84201DD471B00E00027BA
:10039000A1697A1902EB0900081AA0612078C00649
:1003A00002D42046AFF30080002608E0D4E9012102
:1003B0001AF806009047206A401C761C20624E45C1
:1003C000F4DB2078C0060AD52046AFF3008006E0B3
:1003D000D4E9012130209047206A401C2062381E59
:1003E000A7F10107F4DC07E0D4E9012118F80500C2
:1003F0009047206A401C2062281EA5F10105F3DC0D
:100400002046AFF300802078000602D50220BDE828
:10041000F0870120FBE70000074B70B50D467B44D9
:1004200000F039F80446284600F048F810B14FF0C3
:10043000FF3070BD204670BD930D00004FF00002EC
:1004400000B5134694469646203922BFA0E80C50CA
:10045000A0E80C50B1F12001BFF4F7AF090728BFA5
:10046000A0E80C5048BF0CC05DF804EB890028BF21
:1004700040F8042B08BF704748BF20F8022B11F04A
:10048000804F18BF00F8012B7047000001694A1C1B
:1004900002610878704700B58FB0CDE901310021C5
:1004A000059105497944CDE9031011466846FFF7E7
:1004B000C3FE0FB000BD0000E5FFFFFF007B00F0B2
:1004C00080007047754600F02BF8AE46050069467F
:1004D000534620F00700854618B020B5FFF78CFE84
:1004E000BDE820404FF000064FF000074FF0000835
:1004F0004FF0000B21F00701AC46ACE8C009ACE8B6
:10050000C009ACE8C009ACE8C0098D46704710B519
:100510000446AFF300802046BDE81040FFF754BE0C
:1005200000487047D008002000BFFEE77047000079
:1005300010B50A2000F018FE0221034800F0E1F98E
:10054000022000F059F810BD0010014010B50A203B
:1005500000F00AFE2021054800F0D3F910B901206F
:1005600003490870202000F047F810BD001001403A
:10057000140000200EB50121112000F037FA0521EA
:10058000022000F013F92020019000208DF80800CF
:100590000C208DF8090001208DF80A0001A800F058
:1005A00031F80121022000F001F90220019001A898
:1005B00000F028F84FF4A06000F0FCF917208DF847
:1005C000000002208DF8010003208DF802000120B8
:1005D0008DF80300684600F0B5F907208DF800009B
:1005E00003208DF801008DF8020001208DF8030032
:1005F000684600F0A7F90EBD014908607047000089
:1006000014040140002123498279002A3AD00A4685
:10061000126803689A430B461A600A1D1268036841
:100620009A430B1D1A60027911440A6803681A4341
:100630000A60184A0832126803689A43154B083357
:100640001A601A1D126803689A43124B0C331A6021
:100650004279102A0ED11A1F126803681A430D4BF3
:1006600008331A601A1D126803681A43094B0C33C9
:100670001A600DE00749427911440A6803681A4379
:100680000A6005E0027911440A6803689A430A6027
:10069000704700000004014030B5044604254FF4C3
:1006A000302000F06FF80546042D17D10C48006982
:1006B00040F002000A49086108464461006940F0C0
:1006C000400008614FF4302000F05CF80546044813
:1006D000006941F6FD71084001490861284630BDB6
:1006E0000020024004200B49C96801F0010109B152
:1006F00001200EE00749C96801F0040109B1022098
:1007000007E00449C96801F0100109B1032000E0C5
:1007100004207047002002400348006940F0800038
:1007200001490861704700000020024070B504468E
:100730000D460426F00200F025F80646042E11D1DD
:100740000948006940F00100074908612580F0026E
:1007500000F018F806460448006941F6FE710840AA
:1007600001490861304670BD00200240024803493B
:1007700048600348486070472301674500200240F5
:10078000AB89EFCD00B502460423FFF7ABFF03466C
:1007900003E0FFF7A7FF0346521E012B01D1002AF9
:1007A000F7D102B90523184600BD000030B500227C
:1007B0008B071C0F0F2303FA04F20B4B8C1053F81A
:1007C00024309343084C8D1044F8253023468C1078
:1007D00053F824308C07240F00FA04F42343024C0E
:1007E0008D1044F8253030BD080001402DE9F0415E
:1007F000024600250026002000230024002791F84F
:1008000003C00CF00F0591F803C00CF0100CBCF104
:10081000000F03D091F802C04CEA050591F800C022
:10082000BCF1000F31D0146800202BE04FF0010C18
:100830000CFA00F3B1F800C00CEA03069E4220D186
:1008400083004FF00F0C0CFA03F7BC4305FA03FCCE
:100850004CEA040491F803C0BCF1280F06D14FF014
:10086000010C0CFA00FCC2F814C00AE091F803C0B5
:10087000BCF1480F05D14FF0010C0CFA00FCC2F896
:1008800010C0401C0828D1D31460B1F800C0BCF1DE
:10089000FF0F34DD546800202EE000F1080C4FF00B
:1008A000010808FA0CF3B1F800C00CEA03069E42F6
:1008B00021D183004FF00F0C0CFA03F7BC4305FA6B
:1008C00003FC4CEA040491F803C0BCF1280F05D1E5
:1008D00000F1080C08FA0CF8C2F8148091F803C073
:1008E000BCF1480F07D100F1080C4FF0010808FADD
:1008F0000CF8C2F81080401C0828CED35460BDE824
:10090000F0810246002093680B400BB1012000E00B
:100910000020704700BFFEE708B50121102000F05D
:1009200065F82220ADF8000048208DF803006946E4
:100930000148FFF75BFF08BD0010014000BFFEE764
:100940007047000070B5002100230F22C47804B363
:10095000154C246804F4E064C4F5E064210AC1F194
:100960000403CA40447804FA03F184781440214314
:1009700009010E4C0678A155047804F01F050124E6
:10098000AC4005786D11AD0005F1E025C5F80041DA
:1009900009E0047804F01F050124AC40044D0678FA
:1009A000761145F8264070BD0CED00E000E400E053
:1009B00080E100E002490143024A116070470000F3
:1009C0000000FA050CED00E07047000029B1064A6E
:1009D000D2690243044BDA6104E0034AD2698243DC
:1009E000014BDA61704700000010024029B1064A4D
:1009F00092690243044B9A6104E0034A926982437C
:100A0000014B9A61704700000010024030B5002190
:100A10000022002400232D4D6D6805F00C0121B14A
:100A2000042905D0082923D105E0294D056022E0DD
:100A3000274D05601FE0254D6D6805F47012234DAC
:100A40006D6805F48034022505EB92421CB9214DF6
:100A5000554305600BE01D4D6D6805F400351DB173
:100A60001C4D5543056002E0194D5543056002E0F9
:100A7000174D056000BF00BF144D6D6805F0F00113
:100A80000909154D6B5C0568DD4045600F4D6D68CB
:100A900005F4E061090A104D6B5C4568DD40856036
:100AA0000A4D6D6805F46051C90A0B4D6B5C4568D1
:100AB000DD40C560054D6D6805F44041890B074D6B
:100AC0006B5CC568B5FBF3F5056130BD00100240F5
:100AD00000127A0000093D002A0000203A000020A0
:100AE00030B503460C461546002207E0184600F0D4
:100AF00008F824F812009B1C501C82B2AA42F5DBB5
:100B000030BD0146088870472DE9F05F80468A466F
:100B10001746B8F1006F02D33348804501D3BDE8D2
:100B2000F09FFFF723FEA8F1006B4FEADB25CBF324
:100B30004909C9F58064A74200DC3C464DE04FF00E
:100B4000006101EBC5204A142849FFF7C9FF0026C0
:100B50000BE009EB0600254931F810004FF6FF7154
:100B6000884200D003E0701C86B2A642F1DB00BFD1
:100B7000A6421BDA4FF0006101EBC520FFF78CFDA8
:100B8000002608E03AF8160006EB0901174A22F899
:100B90001100701C86B2A642F4DB4FF0006101EB3D
:100BA000C5204A14114900F023F804E022465146BA
:100BB000404600F01DF8A74200D10FE06D1C4FF039
:100BC00000090AEB440AA044381B87B2B7F5806FCE
:100BD00002DD4FF4806400E03C46B0E700BFFFF761
:100BE0009BFD00BF9BE700000000080848000020B4
:100BF0002DE9F04105460E461746002407E036F879
:100C000014102846FFF792FDAD1C601C84B2BC4254
:100C1000F5DBBDE8F081704710B500F001F810BDBC
:100C20000CB50020019000903348006840F48030FB
:100C30003149086000BF3048006800F4003000907F
:100C40000198401C0190009818B90198B0F5A06F68
:100C5000F1D12948006800F4003010B10120009063
:100C600001E0002000900098012843D1234800684B
:100C700040F01000214908600846006820F0030099
:100C800008600846006840F0020008601A484068A2
:100C9000194948600846406848600846406840F482
:100CA000806048600846406820F47C104860084630
:100CB000406840F4E81048600846006840F08070E2
:100CC000086000BF0C48006800F000700028F9D0F0
:100CD0000948406820F0030007494860084640681A
:100CE00040F00200486000BF0348406800F00C007C
:100CF0000828F9D10CBD000000100240002002407D
:100D0000042808D14FF0E021096941F004014FF0B7
:100D1000E022116107E04FF0E021096921F00401B0
:100D20004FF0E022116170477047000010B5134882
:100D3000006840F001001149086008464068104909
:100D400008400E494860084600680E4908400B49B3
:100D500008600846006820F4802008600846406863
:100D600020F4FE0048604FF41F008860FFF754FF36
:100D70004FF000600449086010BD00000010024000
:100D80000000FFF8FFFFF6FE08ED00E010B50121BE
:100D9000064800F070F840B10121044800F05CF80A
:100DA00003480078401C0249087010BD0004004050
:100DB000450000207FB505460C4601210220FFF7C3
:100DC00005FEADF80850ADF804400020ADF80A006B
:100DD000ADF8060001A9104800F06CF80122114698
:100DE0000D4800F059F84FF4A060FFF7E3FD1D2017
:100DF0008DF8000000208DF8010003208DF802001E
:100E000001208DF803006846FFF79CFD0021024891
:100E100000F025F87FBD00000004004010B5044636
:100E20000021064800F043F82146044800F03DF850
:100E30000121024800F013F810BD0000000400403A
:100E400010B50021034800F00AF80021014800F025
:100E50002EF810BD00040040CA430282704721B141
:100E6000028842F00102028004E002884FF6FE731D
:100E70001A400280704730B502460020002300244B
:100E8000158A05EA0103958905EA010413B10CB13D
:100E9000012000E0002030BD1AB183890B4383811B
:100EA00002E083898B438381704781857047818409
:100EB00070470000002202881D4B98420ED01D4B47
:100EC00098420BD0B0F1804F08D01B4B984205D010
:100ED0001A4B984202D01A4B984204D14FF68F73A6
:100EE0001A404B881A43174B984207D0164B98422A
:100EF00004D04FF6FF431A40CB881A4302808B88F8
:100F000083850B8803850A4B98420BD0094B984286
:100F100008D00E4B984205D00D4B984202D00D4B95
:100F2000984201D10B7A0386012383827047000027
:100F3000002C014000340140000400400008004043
:100F4000000C004000100040001400400040014030
:100F500000440140004801400B49098801F020018C
:100F600081B10949091D0988C8B208490988C829F9
:100F700008DA0749054A1288885404490988491C37
:100F8000024A118070470000003801402400002010
:100F90000010002021B1828942F40052828104E0D5
:100FA00082894DF6FF731A4082817047F0B503467F
:100FB000002400260025002040F66A17B94200D11F
:100FC00000BF1846C1F3421401F01F06012707FABB
:100FD00006F5012C01D10C3004E0022C01D11030B7
:100FE00000E014301AB107682F43076002E0076879
:100FF000AF430760F0BD00002DE9F04786B005461D
:101000000E460024A24600BFA1460027B08900B1C9
:1010100000BF2F462C8A4CF6FF700440F088044332
:101020002C82AC894EF6F3100440B0883189084315
:10103000718908430443AC81AC8A4FF6FF400440F9
:10104000B0890443AC8201A8FFF7E0FC1F48874247
:1010500002D1DDF810A001E0DDF80CA0A88900F4B1
:10106000004040B10AEBCA0000EB0A1031684900A9
:10107000B0FBF1F807E00AEBCA0000EB0A10316898
:101080008900B0FBF1F86420B8FBF0F004012009FE
:10109000642101FB1089A88900F4004040B132208E
:1010A00000EBC900B0FBF1F000F00700044308E0DA
:1010B000322000EB09106421B0FBF1F000F00F00CA
:1010C00004432C8106B0BDE8F087000000380140E1
:1010D000C1F308028280704700BFFEE7014600BFEF
:1010E0007047F0B50246002041F22104002513E0CC
:1010F00012F8015B80EA052000230BE000F40046B3
:101100001EB184EA4006B0B203E04FF6FF7606EA6D
:1011100040005B1C082BF1DB0E1EA1F10107B9B2E8
:10112000E6D1F0BD10B56FF00400FFF7E9FD0A4805
:1011300000680A49B0FBF1F00949087008460078D8
:1011400000EB4001C1EBC0104FF6FF7101EAC00097
:101150000449088010BD00000000002000127A0041
:1011600016000020180000200146114A12884A4348
:101170004FF0E0235A6100229A611A46126942F048
:1011800001021A6100BF4FF0E022106900F0010275
:101190001AB100F48032002AF5D04FF0E022126933
:1011A00022F001024FF0E0231A6100229A61704799
:1011B0001800002000BF054A128802F04002002AF1
:1011C000F9D0C2B2014B1B1D1A8070470038014094
:1011D00010B50446206807490840B0F1005F08D107
:1011E0006068054908602068FEF7F4FF024800685F
:1011F000804710BD0000FE2F400000202DE9F05F69
:1012000006460F4690460024B3463D46A1461CE0E4
:1012100068784FEA002A287850441FFA80FAAD1CFB
:101220002046611C8CB20E4921F810A0B4F5806FE5
:1012300007D100244FF480625846FFF765FC0BF598
:10124000006B09F102001FFA80F9C145E0D324B117
:10125000224603495846FFF757FCBDE8F09F0000BF
:10126000C8100020FFF75EFF4FF4A060FFF7A2FB5D
:10127000FFF752FBFFF77EF94FF4E13000F066F81C
:1012800041F61F4142F20F70FFF794FD1EE0104837
:101290000078012805D100200D490870022000F0D7
:1012A000A5F80C480078012810D10BA0FEF7B8FF74
:1012B0001048406800F07F40B0F1006F03D10D4846
:1012C000FFF786FF02E00CA0FEF7AAFFDFE70000B1
:1012D0001400002015000020BFAACABCD6B4D0D08C
:1012E000464C415348D3C3BBA7B4FAC2EB21210DEE
:1012F0000A00000000000108B7C7464C415348D31C
:10130000A6D3C3B3CCD0F22CCEDEB7A8D6B4D0D0FF
:10131000210D0A000A4800880A490988884208DC29
:1013200007490A880988491C054B19800649885CC9
:1013300070470020034908800149088000BFF7E793
:1013400026000020240000200010002010B586B0E8
:101350000446012144F20400FFF748FB4FF40070FB
:10136000ADF8140003208DF8160018208DF8170032
:1013700005A91C48FFF73AFA4FF48060ADF8140055
:1013800004208DF8170005A91648FFF72FFA25202D
:101390008DF8000003208DF801008DF80200012077
:1013A0008DF803006846FFF7CDFA01940020ADF8F0
:1013B0000800ADF80A00ADF80C00ADF810000C20E4
:1013C000ADF80E0001A90848FFF716FE012240F211
:1013D00025510548FFF7EAFD01210348FFF7DAFD33
:1013E00006B010BD00080140003801402DE9F04171
:1013F00005460024022D03D143205649087004E01D
:10140000012D02D115205349087042F20F70FFF7E9
:1014100005FD00BF4F4801784F48FFF759FE4FF4D4
:101420007A70FFF7A1FE4FF47A70FFF79DFE4FF43C
:101430007A70FFF799FE494800783C2800DD04E007
:10144000FFF768FF0446002CE4D000BF00204349AA
:101450000870FFF7F5FC6FE0012041490870FFF7C5
:1014600059FF3F494870FFF755FF3D4988700846CE
:10147000827841783BA0FEF7D3FE3948407838495E
:101480008978C943884235D1002606E0FFF742FF3C
:101490003349C91C8855701CC6B2802EF6DBFFF795
:1014A00039FF2F4981F88300FFF734FF2C4981F879
:1014B0008400084690F8840091F8831040EA0127E0
:1014C00083212748FFF70DFEB8420ED12449497801
:1014D000491E264A02EBC11080222149FFF78EFEE9
:1014E00006211D48FFF7F4FD08E015211A48FFF713
:1014F000EFFD03E015211848FFF7EAFD00201C4925
:1015000008801C49088085211548FEF705FF42F236
:101510000F70FFF783FC00BFFFF7FCFE04460F4887
:101520000078052800DD01E0002CF5D000BF002088
:101530000A490870FFF784FC012C8DD0042C06D1D9
:1015400006210548FFF7C4FD0020BDE8F08100201A
:10155000FBE7000044000020003801404500002067
:101560004808002025642C256400000000000108C4
:10157000240000202600002098150008000000200C
:10158000480000006C010008E01500084800002039
:10159000801800008801000800A24A040000000032
:1015A0000000000001020304060708090000000013
:1015B000000000000100000000000000000000002A
:1015C00000000000000001020304010203040607FA
:1015D00008090204060800000000000043000000A3
:04000005080001DD11
:00000001FF
