:020000040800F2
:10000000705500201502000841090008A7060008E5
:100010003D090008C5020008E30B000800000000CD
:10002000000000000000000000000000850900083A
:10003000C90200080000000043090008990A0008EE
:100040002F0200082F0200082F0200082F020008CC
:100050002F0200082F0200082F0200082F020008BC
:100060002F0200082F0200082F0200082F020008AC
:100070002F0200082F0200082F0200082F0200089C
:100080002F0200082F0200082F0200082F0200088C
:100090002F0200082F0200082F0200082F0200087C
:1000A0002F0200082F0200082F0200082F0200086C
:1000B0002F0200082F0200082F0200082F0200085C
:1000C0002F0200082F0200082F0200082F0200084C
:1000D0002F020008FD0A00082F0200082F02000866
:1000E0002F0200082F0200082F0200082F0200082C
:1000F0002F0200082F0200082F0200082F0200081C
:100100002F0200082F0200082F0200082F0200080B
:100110002F0200082F0200082F0200082F020008FB
:100120002F0200082F0200082F0200082F020008EB
:1001300000F002F800F05EF80AA090E8000C82449B
:100140008344AAF10107DA4501D100F053F8AFF278
:10015000090EBAE80F0013F0010F18BFFB1A43F0A5
:1001600001031847A4120000C412000010F8013B5C
:100170000A4413F0030408BF10F8014B1D1108BF17
:1001800010F8015B641E05D010F8016B641E01F8C5
:10019000016BF9D1002D15D010F8014B03F00C03C1
:1001A0000C2BA1EB04040ABF10F8013BA4EB831451
:1001B000A4EB032405F1010314F8016B5B1E01F8A5
:1001C000016BF9D5914238BF10F8013BD1D370478C
:1001D0000023002400250026103A28BF78C1FBD850
:1001E000520728BF30C148BF0B6070471FB51FBD05
:1001F00010B510BD00F033F81146FFF7F7FF00F01F
:100200008DFD00F051F803B4FFF7F2FF03BC00F0DE
:10021000EAFC00000948804709480047FEE7FEE77E
:10022000FEE7FEE7FEE7FEE7FEE7FEE7FEE7FEE7A6
:1002300004480549054A064B704700009D0A00081E
:1002400031010008704F00207055002070510020CF
:10025000705100207047704770477047704775466F
:1002600000F02CF8AE4605006946534620F0070022
:10027000854618B020B5FFF7DBFFBDE820404FF002
:1002800000064FF000074FF000084FF0000B21F080
:100290000701AC46ACE8C009ACE8C009ACE8C0094D
:1002A000ACE8C0098D46704710B50446AFF3008036
:1002B0002046BDE81040FFF7A6BF00000048704789
:1002C000104F002000BFFEE770472DE9F0410446C3
:1002D0000E461546069F2146502000F017FB294682
:1002E000512000F013FB3146522000F00FFB19465D
:1002F000532000F00BFB2146202000F007FB314685
:10030000212000F003FB222000F00EFB281B401CE4
:10031000991B491C00FB01F802E0384600F0FEFA88
:10032000B8F10000A8F10108F7D1BDE8F0812DE98E
:10033000F04706460F4690469946DDF820A0002477
:10034000002534460CE03D4606E0E0B25246294620
:1003500000F0B9FA681C85B24D45F6DB601C84B22A
:100360004445F0DBBDE8F08700B597B0022001906E
:100370000020029005200390002004900590069034
:100380004FF08050079000200890099008200A90B4
:1003900010200B9000200C900E900F9010904FF4B6
:1003A00080501190002012901390149001A8159085
:1003B000169008A800F026F80121002000F008F8A7
:1003C00017B000BD10B500F091F8FFF7CDFF10BDDC
:1003D00051B18200A2F1C042126842F001038200D2
:1003E000A2F1C042136009E08200A2F1C04212688B
:1003F000034B1A408300A3F1C0431A60704700000A
:10040000FEFF0F00D0E901121143C26811430269D7
:1004100011434269114382691143C2691143026A5F
:100420001143426A1143826A1143C26A1143026B4B
:10043000114302689200A2F1C0421160816808294C
:100440000BD101688900A1F1C041096841F0400267
:1004500001688900A1F1C0410A60416B0968426BE3
:10046000526841EA0211426B926841EA0221426BF2
:10047000928941EA0241426B128A41EA0251426B7F
:10048000127D41EA0261426B926911430268521C7B
:100490009200A2F1C0421160C16AB1F5804F1BD138
:1004A000816B0968826B526841EA0211826B926823
:1004B00041EA0221826B128A41EA0251826B127D6B
:1004C00041EA0261826B9269114302689200A2F1D3
:1004D000C042C2F8041107E06FF070420168890061
:1004E000A1F1C041C1F804217047000008B5012105
:1004F000642000F037FA0121084600F033FA0121A8
:10050000080200F01FFA4FF40050ADF8000003207D
:100510008DF8020010208DF803006946184800F09D
:1005200033F84FF40051164800F0BBF80220ADF844
:1005300000006946134800F027F84CF20370ADF84C
:10054000000018208DF8030069460D4800F01CF8E3
:100550004FF68070ADF8000069460A4800F014F8C4
:100560004FF40360ADF800006946054800F00CF850
:100570008020ADF800006946014800F005F808BD8C
:1005800000140140001801402DE9F0410246002509
:100590000026002000230024002791F803C00CF05F
:1005A0000F0591F803C00CF0100CBCF1000F03D044
:1005B00091F802C04CEA050591F800C0BCF1000FAB
:1005C00031D0146800202BE04FF0010C0CFA00F33E
:1005D000B1F800C00CEA03069E4220D183004FF020
:1005E0000F0C0CFA03F7BC4305FA03FC4CEA0404B5
:1005F00091F803C0BCF1280F06D14FF0010C0CFAA2
:1006000000FCC2F814C00AE091F803C0BCF1480F26
:1006100005D14FF0010C0CFA00FCC2F810C0401CD0
:100620000828D1D31460B1F800C0BCF1FF0F34DD4D
:10063000546800202EE000F1080C4FF0010808FA81
:100640000CF3B1F800C00CEA03069E4221D18300EE
:100650004FF00F0C0CFA03F7BC4305FA03FC4CEA0D
:10066000040491F803C0BCF1280F05D100F1080C77
:1006700008FA0CF8C2F8148091F803C0BCF1480FD6
:1006800007D100F1080C4FF0010808FA0CF8C2F885
:100690001080401C0828CED35460BDE8F081416131
:1006A00070470161704700BFFEE7000010B50221EE
:1006B0007848FFF7F4FF012000F0BAFA02217548EC
:1006C000FFF7EFFF012000F0B3FA4FF48071012033
:1006D00000F01CF94FF4E061022000F017F941F23C
:1006E0003001032000F012F90021042000F00EF97F
:1006F00040F20721082000F009F90021092000F04C
:1007000005F900210A2000F001F900210C2000F079
:10071000FDF800210D2000F0F9F800210F2000F075
:10072000F5F80021102000F0F1F80721112000F069
:10073000EDF80021122000F0E9F80021132000F06C
:10074000E5F80121072000F0E1F8782000F070FAC8
:1007500041F29041102000F0D9F840F227211120F9
:1007600000F0D4F8322000F063FA1C21122000F0CF
:10077000CDF8322000F05CFA4FF4D051132000F095
:10078000C5F82521292000F0C1F80C212B2000F00C
:10079000BDF8322000F04CFA0021202000F0B6F81D
:1007A0000021212000F0B2F80021302000F0AEF846
:1007B00040F20651312000F0A9F84FF48271322046
:1007C00000F0A4F840F20721352000F09FF80F2137
:1007D000362000F09BF840F20631372000F096F802
:1007E0004FF48171382000F091F840F20771392000
:1007F00000F08CF840F202713C2000F087F841F2E2
:1008000004613D2000F082F80021502000F07EF8C5
:10081000EF21512000F07AF80021522000F076F804
:1008200040F23F11532000F071F84FF4274160204F
:1008300000F06CF80121612000F068F800216A20C6
:1008400000F064F80021802000F060F80021812091
:1008500000F05CF80021822000F058F8002183208D
:1008600000F054F80021842000F050F80021852089
:1008700000F04CF81021902000F048F84FF4C061CF
:10088000922000F043F840F23311072000F03EF8C8
:1008900010BD00000018014070B506460024002578
:1008A00000BF0DE0002506E0E0B23246294600F028
:1008B0000AF8681C85B2B5F5A07FF5DB601C84B230
:1008C000F02CEFDB70BD30B503460D4614461946DB
:1008D000502000F01BF81946512000F017F8294667
:1008E000522000F013F82946532000F00FF8194663
:1008F000202000F00BF82946212000F007F82220E4
:1009000000F012F8204600F009F830BD4FF0C04268
:100910001080014A11807047000002600149088080
:1009200070470000000002604FF0C041088070472F
:1009300010B5FFF747FDFFF7B9FE10BD00BFFEE79A
:100940007047704729B1064A52690243044B5A6105
:1009500004E0034A52698243014B5A617047000028
:100960000010024029B1064A92690243044B9A6181
:1009700004E0034A92698243014B9A617047000088
:1009800000100240704710B500F002F810BD0000E2
:100990000CB50020019000903348006840F480308E
:1009A0003149086000BF3048006800F40030009012
:1009B0000198401C0190009818B90198B0F5A06FFB
:1009C000F1D12948006800F4003010B101200090F6
:1009D00001E0002000900098012843D123480068DE
:1009E00040F01000214908600846006820F003002C
:1009F00008600846006840F0020008601A48406835
:100A0000194948600846406848600846406840F414
:100A1000806048600846406820F47C1048600846C2
:100A2000406840F4E81048600846006840F0807074
:100A3000086000BF0C48006800F000700028F9D082
:100A40000948406820F003000749486008464068AC
:100A500040F00200486000BF0348406800F00C000E
:100A60000828F9D10CBD000000100240002002400F
:100A7000042808D14FF0E021096941F004014FF04A
:100A8000E022116107E04FF0E021096921F0040143
:100A90004FF0E022116170477047000010B5134815
:100AA000006840F00100114908600846406810499C
:100AB00008400E494860084600680E4908400B4946
:100AC00008600846006820F48020086008464068F6
:100AD00020F4FE0048604FF41F008860FFF753FFCA
:100AE0004FF000600449086010BD00000010024093
:100AF0000000FFF8FFFFF6FE08ED00E010B540F241
:100B000025511D4800F03EF810B31B4800F064F872
:100B1000C4B21A48008800F40040C8B917480088D9
:100B200000F4804060B10A2C03D0002013490880F3
:100B300020E01248008840F400401049088019E085
:100B40000D2C06D10D48008840F480400B490880E8
:100B500010E00A480088C0F30D0009490C5407480A
:100B60000088401C0549088008460088C72801DD28
:100B70000020088010BD000000380140444E0020D5
:100B8000484E002070B502460024002300250020B6
:100B900040F66A16B14200D100BFC1F3421501F020
:100BA0001F03012606FA03F3012D02D19689334073
:100BB00006E0022D02D1168A334001E0968A3340C6
:100BC0000C12012606FA04F41688344013B10CB155
:100BD000012000E0002070BD01468888C0F30800B5
:100BE000704700BFFEE7014600BF704710B56FF0C9
:100BF0000400FFF73DFF0A4800680A49B0FBF1F026
:100C0000094908700846007800EB4001C1EBC010AC
:100C10004FF6FF7101EAC0000449088010BD0000D2
:100C2000284E002000127A003C4E00203E4E00204C
:100C30000146114A12884A434FF0E0235A610022CC
:100C40009A611A46126942F001021A6100BF4FF020
:100C5000E022106900F001021AB100F48032002A8B
:100C6000F5D04FF0E022126922F001024FF0E023AC
:100C70001A6100229A6170473E4E00202DE9F0472C
:100C800005460E4613460824D878997800EB0120D3
:100C9000401E1FFA80F95879197900EB0120401E97
:100CA0001FFA80FA29465020FFF730FE05EB0900B5
:100CB00081B25120FFF72AFE31465220FFF726FE6F
:100CC00006EB0A0081B25320FFF720FE29462020C0
:100CD000FFF71CFE31462120FFF718FE2220FFF708
:100CE00023FED878997800EB0120400059791A79D1
:100CF00001EB022100FB01F809E0601C185C195DA2
:100D000000EB012087B23846FFF708FEA41C08F16B
:100D100008008442F1D3BDE8F08700001CB5FFF75E
:100D200065FFFFF705FE4FF6FF70FFF7B5FD4FF4C7
:100D30007A70FFF77DFF002415E004EBC4003E4904
:100D400001EB001004EBC40101EB04111E22009022
:100D500002EB41004FF6FF734FF478421E2100F082
:100D6000AFF8601CC4B2032CE7DB032032494FF616
:100D7000FF734FF47842CDE900103C211E2000F0B3
:100D8000DDF8002413E004EBC4002C4901EBC000A3
:100D9000C4EB04111E22009002EB41004FF6FF73DA
:100DA0004FF478425A2100F04DF8601CC4B2072C71
:100DB000E9DB072021494FF6FF734FF47842CDE974
:100DC000001078211E2000F002F933E04FF4784043
:100DD000A023C822962100901E20FFF7A8FA4FF406
:100DE0007A70FFF725FF1F20A023C82296210090CC
:100DF0001E20FFF79CFA4FF47A70FFF719FF4FF4AB
:100E0000FC60A023C822962100901E20FFF78FFAD5
:100E10004FF47A70FFF70CFF4FF4FC60B423C82244
:100E2000AA2100903C20FFF750FA054ABE21142069
:100E3000FFF724FFCAE70000601000081012000846
:100E4000000000202DE9FF4F04460D461F46DDF847
:100E500034B00026B046B146B24605F0FF0A00BFE6
:100E60002AE01BF816804FF000091FE008F0800010
:100E700028B1E0B22946029AFFF725FD04E0E0B26E
:100E80003A462946FFF71FFD4FEA48604FEA1068CF
:100E9000681C85B2A5EB0A00182803D15546601CD2
:100EA00084B206E009F1010000F0FF09B9F1080F72
:100EB000DCDB00BF701CC6B2242ED2DBBDE8FF8F86
:100EC0002DE9FF4F04460D461F46DDF834B00026DD
:100ED000B046B146B24605F0FF0A00BF2AE01BF853
:100EE00016804FF000091FE008F0800028B1E0B242
:100EF0002946029AFFF7E7FC04E0E0B23A462946A9
:100F0000FFF7E1FC4FEA48604FEA1068681C85B2C1
:100F1000A5EB0A00182803D15546601C84B206E0F0
:100F200009F1010000F0FF09B9F1080FDCDB00BF97
:100F3000701CC6B2482ED2DBBDE8FF8F2DE9FF4FF3
:100F400004460D4698460026B146B246B3460027F1
:100F500005F0FF0B00BF35E000262FE007EBC701CF
:100F60000D9800EB011010F816904FF0000A1FE0EA
:100F700009F0800028B1E0B22946029AFFF7A3FCED
:100F800004E0E0B242462946FFF79DFC4FEA496083
:100F90004FEA1069681C85B2A5EB0B00182803D135
:100FA0005D46601C84B206E00AF1010000F0FF0A11
:100FB000BAF1080FDCDB00BF701CC6B2482ECDDBD7
:100FC000781CC7B20E988742C6DBBDE8FF8F2DE9BB
:100FD000FF4F04460D4698460026B146B246B3463A
:100FE000002705F0FF0B00BF35E000262FE007EBE0
:100FF000C7010D9800EBC10010F816904FF0000AE1
:101000001FE009F0800028B1E0B22946029AFFF7FC
:101010005AFC04E0E0B242462946FFF754FC4FEA8E
:1010200049604FEA1069681C85B2A5EB0B001828CF
:1010300003D15D46601C84B206E00AF1010000F0B5
:10104000FF0ABAF1080FDCDB00BF701CC6B2242E09
:10105000CDDB781CC7B20E988742C6DBBDE8FF8F98
:10106000000000000000000000004000010001003E
:10107000800001000600000001001C0000007F004D
:10108000FF00FE003F00FF00FE00210020000000E6
:1010900001001800000002000C00440010002000B5
:1010A00084001000310008001000620010001000E1
:1010B000AC00200011003800400012002100800028
:1010C0001400270004001C003C000400380030001D
:1010D0000600100020000C0000003F00F800000097
:1010E0003E000000000000000000000000000000C2
:1010F00000000000000000000000040000000000EC
:101100000800000010001000000010002000000087
:101110001000C00000001300800001001E0000004D
:10112000010038000400210000000400210000003C
:101130000400310000000E001B00FF00FC00100046
:101140006000000000001800000000000E00000019
:1011500000001100800000006000C0000000C0001E
:101160007000010080003000000000001800000046
:10117000000010000000000000000000000000005F
:101180000000000000000000000008000000200037
:1011900018000000200010002000200020001C008B
:1011A0007F00E0000C000000100000000000300094
:1011B000000080002800000080004C00000080003B
:1011C000840000008100040000008600040000008C
:1011D000BC0004003F00F80004002000840004006C
:1011E0000000840004000000820004000000810070
:1011F000040000008100C4000100800044000100E0
:1012000080000400000080000000000000000000DA
:10121000000000000000000020000000000030007E
:10122000030000003C00010000003F0083000000BC
:101230002300EC000000000070000000230080008C
:1012400000003C0000000000200000000000200022
:10125000000000000000000000000000000000008E
:101260002000000000003000030000003C000100EE
:1012700000003F00830000002300EC00000000009D
:10128000700000002300800000003C00000000000F
:10129000200000000000200000000000000000000E
:1012A00000000000000000000700C00000001F0058
:1012B000F0000000380018000000200008000000C6
:1012C00020000800000020000800040010001000AA
:1012D0000700FF00F8000F00FF00F0000000000012
:1012E00010000000000000000000000000000000EE
:1012F000000000000000000038000000000038007E
:1013000000000000380000000000000000000000A5
:1013100000000000000000000000000000000000CD
:1013200000000000000000000000000000000000BD
:1013300000000000000000000700C00000001F00C7
:10134000F00000001800300000002000080000003D
:101350002000080000002000080000003C000800F9
:1013600000001C00100000000000600000000000F1
:10137000000000000000000000000000000000006D
:101380000700C00000000F00F0000000180030004F
:1013900000003000080000002000080000002000CD
:1013A00008000000300008000000180030000000B5
:1013B0000F00F00000000700C00000000000000067
:1013C00000002000080000003F00F80000003F007F
:1013D000F8000000100008000000200000000000DD
:1013E0003F00F80000003F00F80000001000080077
:1013F00000002000000000003F00F80000003F0057
:10140000F800000000000800281400080000002078
:10141000484E00006C01000850370008484E00207C
:1014200028070000D0010008000AFF101000640027
:1014300064011BFF0101FF0101FF0101FF01013EEA
:101440000152FE04710AE3F7DE230287F7AD62F76B
:10145000A4210A1005FEF7FEEF0411020111A231CA
:1014600014411E2004FEF7DE3843F7DF1051EE0171
:1014700083C8C1DEB019E71BD637CDB5BD33BCB2CA
:10148000B491B491BCD2C533CDB5DE58EF3CD44055
:1014900004FFFFDFD6017DC322DF0286EF7C5017F9
:1014A000FEDED9BCF2A30C8185688268406840608A
:1014B00020600068206002226802700C4170C389BD
:1014C000C6AB4CC553E71A4412BE480D870A031039
:1014D00009C5B592EB68E468000210122069037A2E
:1014E00027930BAC0FC4D3CD74D5D6D5F604100E0C
:1014F000B6CD54BC92A3CF92EB71C568A2D211288D
:1015000078077905A36DD6579E027EDEC3CC13D62D
:1015100079934C70C3702168207165936CC554E653
:10152000FB1203DEF7CE031007F7FEDE99BCF3D201
:101530000C0B6D23686070217124ABEDE756081D1C
:101540009C036DCE0322DD0C1009FFFFD595822789
:101550007041C27C0644ABCFE6BB80040D17B803D4
:101560005EEF0C034988300FD6589B4D70E4700035
:101570006881928AD6596232DD5A0F5BDFF7C80460
:101580003EEF96046D10031805D5F571A5F67406A7
:10159000228A89D6367C1D58052FD5B7B4040D157F
:1015A00052032005DDF7DFEF4A15042405B552F795
:1015B0009C9E200DC55471E6604068208228DEBAEA
:1015C0001A4DF803095B682D06063D9403480CE6A6
:1015D000DA8A07684070819B2CDF146EBEEA0360D4
:1015E000058ACB9B4D260D11A4051EFD7A05600CC6
:1015F000BD7966FFBECDB55800CDB6501C05D67975
:10160000926818043406409AECF77CF2025ADEC85D
:101610003DF6051DD403380BAC2F70615880928ABB
:10162000E6DB4811161D68050810143BBD75CE1782
:101630007925C4B2DEDADEFBF7FF5A256A480D8B46
:101640006C5841D6389B6D8A49E6DBA849A4540CF6
:10165000DE3879C6684078C3BD13FFDA0D58200321
:1016600019E23C0A1A79A660207124D5F6FA061A06
:10167000DFCE1D3603081117E6DA79658208E6FB2E
:10168000EF9C822778E3BCD2E01ADE524C047CBD8A
:1016900073DA075EF7440713F7DD181D3A071C0BD2
:1016A000FFFFBCD360C268418A4980030E55FF8E9C
:1016B000053DA0031FBD3336053C04419B6CC007AC
:1016C0003DBE07457A0C1113B533A30B9BEEFFFF0C
:1016D00082A9AB4EF75B8209700821301D18033CCC
:1016E0000B7A49D513C5548B0CB4723A041EFE0C08
:1016F0000735944D24044C0AF79D8268784070E3C6
:10170000DE9205054A964AFEB21C05FFFF938CC87F
:1017100006DC04A2CDD5840419F47C11EF9C78C4B6
:101720009B4CD618A3CEB4508A8979A7DC048EFFCF
:1017300024074DAC085C0D8A8A89C68A69B49081F9
:10174000C8DEB9BE08EEDE70092C09B4916861608C
:1017500081B4D2B8086EF732080D43DE0341822C03
:1017600007702079A6EF5CD603D17A1DAC03041074
:101770001081A68207D5F7BD34C595D574CDD6EFB7
:101780008A5DC4044C0A92489AABDE78B471CD19D4
:1017900004FD620529A82DF8031D9206540420A318
:1017A000AEF60D437C084DDC034C077A07780192B6
:1017B00048EE03AFEFDF50095AF72E1C0579A6B4A7
:1017C000710103500458930C8E3FDEFF78045D18BE
:1017D0000A110C13D617261C08E7B45192ECD55504
:1017E00074051C06FEE71AF7BE560AAEDEDE0439A3
:1017F000641DC404080948EF9C718560409B4C5EE1
:1018000021C63C0771E77000932AAA06EFBEFFD8F5
:101810000931EA3C05D5D7D555FE050804169D8249
:101820006A0A1007EFBFFFFFA40F080C0C119D926E
:10183000AB692460015882F7BD140B46FE942C0955
:10184000FFDE7A06700092EB1E070D447A082C0624
:101850008A2868219316064404FFC555EAA9D43D99
:10186000820B35FC4D14033D6006701CFBCD95AC1E
:101870000F9B0B824879C779A671A581E68A699B7F
:101880004CB450CDB5EF3AD60C04137CE73BDC05E5
:101890003D50074DE2051E82A6060F3BA34CDC031C
:1018A000290A2EBE5A07140692CB68608A163C0994
:1018B000ACD2AB8D6861824866043D800351BE1D89
:1018C000720435A83DE6071013CE16A34D71656866
:1018D000C268A270E378E379037904041223081242
:1018E000031012A2166C08C279A6A3CEDE980E03CE
:1018F0005FEFDEC00C410229883EBECC054514389E
:1019000008FE81876820AC305C0E31DEE20B2D963C
:10191000032DEC053C08FFABEF60418228C4074C67
:1019200008B970E38207B450A6065EF746096DCC8D
:101930000425601FABCF2E09400F8278A378E4798D
:1019400024792481257944810230044581240A10B8
:1019500004247144183C0A0278A270627966B4913A
:101960001E0E3EFE94044D92096DCA052D9E083050
:1019700004BDCE176A4C08BC71256021CD941A07AE
:101980000130C84D30092407CDD6682171850A1E63
:10199000EF3A091809AC907A279AAAC5D6107DAEFD
:1019A0000E5D0E0910089C936C68A278C2C02004DA
:1019B000447944AE4279BAD1022120237163247460
:1019C00009790468C170C3AC308E5D9A052D52044C
:1019D0002409F79DFFFFA36D60204E4C0BF7FFEE2F
:1019E000FB70836882E73A4E0E0D2F6C052D9E0624
:1019F0003C087B70C47081DEF9C8053DF2062C09F5
:101A0000A32C70A29A2881E814074C05A40FF79E16
:101A1000BE0A300BB47178A480A379247143A22547
:101A20008C03112481C81118200404810420312260
:101A3000196E5C0778837105C574140F1C05DFF7F8
:101A4000DDEF32033C0BA2E971A492EA7966BD1284
:101A5000520419B01807C55468618186240D2FF20D
:101A6000032D02033DE0031C0442BCF3EA061D1AE9
:101A7000051013EFFEDE1881C8D618AC4F6080D673
:101A800017F79C79665A1DFE0A1C07E73A79C7705A
:101A9000820403293451A431CE05128E15AA45AC17
:101AA0001779259A100543716471CC2C05688182E1
:101AB000CAB8042D16031C07AC918AEC8A494C0362
:101AC0003404A2A38DEC1DF808290A1F9B6C46085C
:101AD0000E30AE82052D020C4C07BCF370408AA973
:101AE00054072D900B1007CDB69BEDF77C541C09C5
:101AF0000C822858618228EF9A0E3004D53568C4CC
:101B000055867204061A43460A11255826238A511F
:101B1000EE4625B88C09794470E37103E6786E0DC2
:101B20004C0AAC71C4B1A36C7147F72807390A4C51
:101B30000781656062E659D6108EF784110D16BADA
:101B40000789F8CC08BD68E268C2F77DFC0D300B50
:101B5000BD34932CA34C79E7EEDA70100430608228
:101B6000B20D100A0312450202174402D11C3504BB
:101B70005C060358C3C595C4052C04FFA36E00077B
:101B80001D260E8EFE4A0E5C07DE57684279A5843C
:101B9000090E14FEDC10F1C819FEEC079B4B6820FF
:101BA000BC92920E5C06EF7C60A3AB75083406A372
:101BB000AD6883817E0119B401240229904C06038B
:101BC0006862BCF260096C058AEA8A6812078D5661
:101BD0000628059B2B6040E63DB20C0D1C80054D90
:101BE000C20A1D8004EC07E6FA704181A6080C1DAC
:101BF000CC0D2C06FEEEFBCD55CA041FA3CE16035A
:101C00001D0A0311C8013DC63D4C033C0A2479233B
:101C100081236081C51378076C04EA80E5DC124DEE
:101C200098083D1C093C06BD68A170E4340B0F25E3
:101C3000DFF7660C2C078ACA6841D5F6600CFD48B0
:101C4000131C04FFE71C280C1A71520C0614448163
:101C50000371449A04052E903E713A032C077924AF
:101C60007062CE167E110C0510AC0FEFBE76146CB0
:101C700007AC0F6041AC50D2090D1D840F1DDC0D67
:101C8000FC08E6FB70617207FF320B25902DA4045F
:101C90001FCE16C8061D18034E71B4032D9C0406F2
:101CA0002B25845E2486056D26076E04F6035C07EB
:101CB000712370C3EF3B62112DD6106DCC09492AF8
:101CC0000C0621DF690268E3000B5D0C041DE604CD
:101CD0004C0420CD95E4066D3E093DB00D3D0E0748
:101CE0001805F79D70C4066D2A06140444812396D6
:101CF0001D7E0811842EA290080124021C0960C2D6
:101D000070E271038105B0042242461DBE04295EC3
:101D10002C0644710281C7EA05CD0A165DA811158B
:101D2000924C046801C5F80ED92CDD3E0F21BA7C17
:101D300006BE68A27965C0116D140A4EDF080A1943
:101D40007420044A70E3C85D4C051C0C257925718C
:101D500045718378E18AAA2E0902259D02227D041D
:101D6000113A1DAA087C0480E579A2052D7003FCB8
:101D70000568C2A3EF6A155EDF84050C061E5B7062
:101D80008171C6E2164D30163805BCF37821864DB8
:101D900008084D480F2D240C2DC6103C06FFCD75AC
:101DA000706306069D36051778A38A2E4120100D14
:101DB0002B0E0C1408FF934B704178811679703507
:101DC000E4EC06446882EEFA1A0F31C81D980C60E4
:101DD0000792E97020DE99AC0D1810111C07FFFF67
:101DE00089E76861F0065C04FECE3794121DF40F9B
:101DF0002D600949622804714569009D76087C09B7
:101E000070C2D5B5BD96D5D84A1701220249B48013
:101E100008FECD76C555AC0FCA2D22070C071271EE
:101E20004478E38A485A0F2DBC033C07DDF5702146
:101E300093AD4C130119C81DC0113C045C70419C4A
:101E40000B1C07DD6104EF3ADEE4144F5964380BD4
:101E50002DD4071C07BCB270A2792348098E04B4A4
:101E6000032378E2580D38DE0C6382284E4D1608A5
:101E70002DBC040C05156881D65826190C061CFECD
:101E800071056944260E2D3A061FBD1400072EB2B7
:101E9000E8135C0F8125C5536104FF9D71C5BC111A
:101EA00082CB180E1E25E8051D32068D0A0A117810
:101EB00090176378A381259B8CB4F2B4F3B4D1ADB1
:101EC00012B4D2ACF2ACF2B402D2AC0A21061C08B5
:101ED000ACF2BCF3C4919B1A163F78E2580A7E44D8
:101EE000DE081DB8047770E2927DF40E2C05E6FB47
:101EF000E73B60080C071AA34C6820DE98FC0A290F
:101F0000423C0692AA6840E7FA042C0F8ACBEF3BCA
:101F10008A28818589E7BD3479268A0A1FC5B51CC0
:101F2000034DFA066D0E0A2DBA0A3DB004100D706D
:101F3000C36882B3CEBBF0BBEEBBCF021004EEB3DE
:101F4000CE0222EE0222BB0832CE08310611101357
:101F5000EFCB045C07A32C688170C36409F1022FE6
:101F600060A2F0164D76101C0C828A69C6F7DD9BC4
:101F70006DB430C65E060C071AC5956061AC4F8C17
:101F80000C2DEE133C0568C37984C6151C063BEF87
:101F90005BEF9DEA173C08AB822781A58B0B680796
:101FA0005C066980E48103600C6244C831781D845A
:101FB0000B1C0670C4F79CF7E4091D02168C04DFA5
:101FC000EFDFF6118D74173D1C16219A1C05FE9C3F
:101FD0000FF79210740468C279863D280B2C0443D5
:101FE0007143120B2DEE084C0578E3A3CF160A1DA2
:101FF00012071C0EDDAC0F81A7AC0FA26A814668E8
:1020000083D00D00041BC28A08C84C06FFE6BA68DC
:1020100021A4102C0779C781A7EF5BB2151C068994
:10202000E891C79C1E1047E77D3E3D48084D560984
:102030003D06071D540C195C2C05794370A37010E4
:102040004FBC3168031009DE57AC0FB450B45104D3
:1020500011023C0AAC70B430AC90ABCEF7E4061D74
:102060006E1011264C05DE797882B00C4DA8045D07
:102070003E041D480E1E717C0A1D82033245480C29
:10208000181C9A7A09F7BCAC4EC553922992A88ABB
:10209000A9D636EF3B7A0560E38C1B3C05C554702E
:1020A000208C091D9A081C09E6F98A8A8ACA6925C2
:1020B000E2182C05B8EF5DF7CE0C4EA2A00B1E80E7
:1020C000780F5F71046E0C1D520C3C0978E478E3C4
:1020D00078C268C4AA064EB162148C05AD54DEFA0B
:1020E000780F4DF0154C05C574DE99221C2EA422E4
:1020F000124809BA686280E380E471A41D2A0A1FAD
:102100007904C20B5F23796C0D2C056881DED8E65B
:10211000121C04CD5569240F0C131ABCB2934CAB9E
:102120006C6945930B586389C76861E6BAD6073C6A
:10213000079BCD6840DE58A8182D9C0F2C0A4E70C6
:10214000407163A3ADE658AA0F4C059B0A78E33CA7
:102150000C10098104728882298208744D62042857
:102160000CC6824982687145D575D5B6BA2D7406FC
:10217000EC05B534EEDB70044005CD95E6791E1014
:102180000B936EDDD7C47269C58248385E657E0DDB
:102190006808458A497A6979E7AC00211A68E3A2A0
:1021A000EB6041934C8ACA9A8AC492BD55D5B589D1
:1021B000A8E6DAEF7BF7FFBD136840CD14C85C08D2
:1021C00092696861EF9DFF200A2C0BBD55A3EF6952
:1021D00025BC9161A6320F3771452A1DB2041F79C3
:1021E0004586152C0506F73B69420D48122470A35D
:1021F000CD73AC0EBCB1AC0ED5F7DEB9B430581807
:102200000DCE17A3AEAC2FA44FB450BC70564C0AE1
:102210004FA40FABEFA36DEF1CFA141C0F9BAEE69F
:10222000DABCD2D61692CADE159B4C58112C0D245E
:1022300078E4932BDDF69B0BE69868C00419AC4C50
:102240000770E39A89FFDD1A1D1F61457C1C4C064F
:10225000985000E75B001A0C051A6020B40FCC05FB
:102260008C0579A670E366103DCE173C04B9E77C77
:1022700080134C055C68C371DC034C0A0381458202
:10228000AB70009AECC40E1C0978C4A34C60826841
:10229000C398081D06199C04B471F7900A1C05F731
:1022A0009DBD148A05BC04F2BD95080613FEA4EE7C
:1022B0001C0CD65892CA6842714592CA713C045CA3
:1022C0000D7903924971866841AB2D78E3FC0E1EAF
:1022D00004E2105DEC122FEEFA8C074FC595361113
:1022E00000071AEF3B6861930BC82F7104760C6DE1
:1022F0004E0D5DE21A1D52121D72152C0478786283
:10230000D2031D640F1D0C111C09F79C8B6BEF1A77
:102310006902F20A1D72052C09BCD1B4F1CDD59B1E
:102320006CE8103FB451FA0B3DB0041FDE7A54172D
:102330001DFE14190C5C06BD9BAFF79DA80E2D4227
:10234000191126180BDE17BD94A40FE67892CAB0B7
:102350005C0E0469238A89DED99C0ED61668C2D623
:10236000051C04246882C01A5D2C153FFFBF62154E
:102370004DAA1E0C0619DD70C382075E107C06DDB7
:102380006882926888115EDF7A0D3D52123C05C565
:102390009570A270051C0C45792380E4A430A44FED
:1023A0009BAE500815363C1170E38ACAA450AC109D
:1023B00081E7C575C5D7B410FC073D1A191C0DB4CB
:1023C00051EFFD81A668A36862A2ECA4046E302ED2
:1023D0001419581C0E6DCE18B4918ACAAC10A450B2
:1023E00081A6EA08180E04712381879C50AC309BAB
:1023F0000C80C3BA3D420BDC057083E6FA6E205DAB
:102400007A0F1D14100219A6C89C067D606092EA1E
:102410004C2166FE021DCC171FD278DA112D3E0624
:102420002D3A083DA40D2C0A5B7082ABAD9A298130
:10243000A600081D68076C082DDE37DEDAB4301AF6
:10244000102C09CDD6DEFA92AA888350141C07708E
:1024500062C4D2BD735A0C4D720F240AFE9BCEDFAC
:102460001BC4D2CD54EA2C0B9289A30B8145AB8BB4
:102470009229E8196404CE3760901D080C6D9E08FF
:102480005EF79C1C3D96091DDE171DE60B0E1945D7
:10249000440D60063B68409B2BC83DFE0A6EDFE2A0
:1024A000133C05AC5070C2200329B83E0476161CBC
:1024B0000B9C60619BAD8A287985B46C051D400F2B
:1024C0002A6D3A6FB451780E2C079ACDB44F89C754
:1024D000EA0D240A7143692392CAABEFACAC2D8C90
:1024E0000D1FFE9CD60D2C05D5F7C5B6080C2C0A81
:1024F000828A92EA71249B6C82DC061C04FFD61748
:10250000C2094D6A0911C89FCDF69A083DBC0B2D32
:1025100000181DC8030C0418657904980811C8EC4C
:1025200004209B2CA61C4DCE0B3C05AC5078A25829
:102530000B1D800E3F71232C1C2C0CBEAB0BCD74DD
:10254000C451BC0EDDF7A6051C05A36DF77D2E1248
:102550006E92DC202C05ABCFC5B4A4053271326C71
:10256000078248BD34C4F4981E13A470C82EF6AC7C
:102570000D2D240F2C09C4F2BBCDCD34BC50261C2C
:1025800013D638C82C064379058144980D0F12D50F
:10259000B57A161D6E1900041B867124C83241C815
:1025A000ED02172DE006B0055178A279C81407EFA7
:1025B0005D60609B8D903C0465B49140114C086D4A
:1025C000BD54C5D6B40F920E2D6C1B1D00051C0604
:1025D00066788378E4F6151C04629B0BA60B6E9557
:1025E000E40F2C089B6ECE17A42FD5B01D1C04FF42
:1025F0008269B2043C05239B4C7A461671C835901B
:102600000314D5D6C8137965840118C82C047C68D6
:102610006170180D12D6122FB4B2960831C8360464
:10262000901D4E03300B6881ABAE92498986BCD2B7
:10263000C86C074DD616DEBABC20036C16FFAD136E
:10264000FFFDB3CFA4B1C5F6EED993ADC4D2EF9DD3
:10265000CD76E2181C059BCFE6FB2003356E4C09B6
:102660008AA99B0B7964AB6DE20AB1C8000514A37B
:10267000D637F7C83E25A4030D18B0040C04118109
:102680008A6986193EDFB2086EA2821621C81DD45F
:10269000205C0A7D6861ABAD924981A5E8031F6D9E
:1026A000FFD81F1D46175DAC091006B4F3F7DEC551
:1026B000AA2FC5D67A146C07BD54EF9DD575181A8C
:1026C0001EA4F6107004DDF6C5C8138144C8E6499F
:1026D000901D180E0E11DBEE102DE8060C041A04E6
:1026E0007986EE220C051278C379E772141D8003F7
:1026F0005C04587081800335901D7410159010058E
:10270000A3CE8A69C835901D00202D20036E52206B
:10271000123C04BCD4FFBA061C04CDB6F6681F6C8C
:1027200007BD54F7BDD595FA144EA4E8034590565D
:102730008A9071C81D280A1D80101E814006EFF77F
:10274000BD9E2235D00C041BFD78A240061C04FF60
:10275000798540038DF0255D1A1A2DA40F1FEF3BDC
:10276000B0041F2489B212237123241DA6051A7CEC
:10277000585806CD926881C5581C088EEF1BFFDEA5
:10278000A492B6041E5CF2031C169DACD2F75BBD8E
:1027900054FFBEBD74E699FF9DB4F3EF1AC554D241
:1027A00004227D1C2DB00477CDB59034080A7944FD
:1027B000A38C82293025904E231A053F71450822AB
:1027C00031806DC8063DCA0B1A5B380E1ACBBC238C
:1027D0006C05924968815A1A4DEC056EF76A192FFB
:1027E000FF69B0121D40063F80E37805380DFEF703
:1027F0005C6042AB6C8A098145BC4C1C05A3AE6091
:10280000411A0D1C0AA2688160A160A068A1DE11B6
:1028100022610E1D0E12300782708270A2701C138E
:102820006880022C098170C168815800DD56055C02
:102830000AFF8A499ACB7104A34BE8033C05376829
:10284000A28194133B80C3E43DEC175D74223DB636
:10285000161DF20B0C061A786040ABCF84246C076F
:102860009B8C6060DE7AF00A6DC81B4DDE101F92F3
:10287000AA10101DE80C2D6A0B35282C0ABD8269A0
:10288000BCF2A40FA34CF8081DBA1A1EAEA20E2E5D
:102890004508121D6A175E254C0C4DA20C7E24645F
:1028A0000C7225024C042468C1C6033C0BABEEB489
:1028B000709B2CC491A38E78053C041768A3B217B3
:1028C0001DC0103DF60D1DBC1DCFDEDB74242C0594
:1028D000C5336040C4050D18800C1C04BD12601285
:1028E0000B4D381E1DA81B4C089DD5D793AEACF2DE
:1028F00082172005BCD27883C81D0C093958380DC1
:10290000FF9E81C689E791E879C6C534581E8DA817
:102910000E1007E278E270E26804210A2102210A1F
:10292000200770E370C278C3143371021041024E65
:1029300021441F2C099B8D7A068A2781E760231D7D
:1029400088034C045760C2E8191D421A3E58FA2108
:102950005C06FECE58CDD7D4073DA41E1EA35E0C48
:102960000F19E679C0121DDE0A4C056060A34D4ABE
:10297000222C07930C93CEB3D09A234D0A0D1FEF50
:102980001A480D2E43D40618077924E6BADE9802B9
:102990004C08E2712380E370A2BA125007C554A319
:1029A0004DA38D0290066DA36EA38E046102611E7D
:1029B0003C076DA38D934BE7BC1D1F92AA5E041DBF
:1029C000061D2C098248E6D9DE99C51388032DEE31
:1029D0000A8F78E428171FE65828041C04FDE77CBA
:1029E000D6192D3E064AE6FE0D1950143C06DE703F
:1029F000C38187CA152EFFBA202C09BD35DF3BBD28
:102A000033EFDDD41A1DB4201EC6B40B1C070579A4
:102A10002388E46856101F68A2AE0F1D5A1A800E54
:102A200078C492EAAC71AC31A3EF9C50A40270045C
:102A30004FA46F02924F028122100430AC0F042C7D
:102A4000047181E65A0E2D920F1DCE1D1C05826861
:102A5000E388261D1D460B4C04E39B8C9A231C0522
:102A6000E6FB832CE00C1EF33E203EF7641D1EBDEA
:102A7000120B0E1AC5C8192D56241E82EA032DC644
:102A80000E6EEFEA034C06BEAC10CD963A261D88BA
:102A90000D4EA23C1B1D420F8D8E19180424692374
:102AA0004C1DF4171005DEB9DE79023298060116C6
:102AB0000232990211081FE6B8C2112D1C1D9D7A21
:102AC000186DAE1A1D3E033AA2561DE81C1D2A2899
:102AD0005EDA2C0A3DE6251D0A043E4084100D1BDB
:102AE0008E1A1D12184D22033DA4165C099BCF9B24
:102AF0002DDE58E73C50253FBE712E092DF20A9D70
:102B00002C1B1DF6171781249C1C04467985C009CF
:102B10001C044579641E1C32450A4106410A610EB7
:102B20003D3A1C11243C04458186EE1CAE04DC1D9C
:102B30003D86133D6A072DAE164DB8181DBC054DD8
:102B400016156D1E030C061CCE6820D617E0151D49
:102B500022034C06FB704192AAC40763B4F4303FD1
:102B6000E79D56221D440C1F78A3A606BD841A4D6E
:102B70006C103D3A036DF81B0122021E24C8051E8D
:102B8000437003AE23DC1D5DCC1D4C06047082CD6A
:102B90007664057C09D6799B6D9B6DEE99CE194CB8
:102BA00004FE7945CE190D1AE8032D50083C05891D
:102BB0008568A3C82511442DE4155C07EF7DC596F3
:102BC000BCF472172E9C34183D400F9DCE182DD8A2
:102BD0001C2C04792489BE0F119831044102810A0A
:102BE000E1028C064381238904BC12AD601F2D8451
:102BF000182D76084D5E1D2FAD129E1F2C07AC4F71
:102C000082CAEF9C4E1F0C071ADE786841932BCCCA
:102C1000296DD6104C07B4906820BD33BA052C0539
:102C2000C575BD551E051FE75B9C233D721B1DE24C
:102C3000152EA1C61FA542491E7E713A1FAD1E1456
:102C40006D9E1D81189281167126BDA8165C0570B7
:102C500062DE37241E5C04F6DDD6061B1E1B442EE6
:102C60004D821E2E40D8290D1AA4214D64186C07E0
:102C7000EF7C708281A7C4254D06276C058AAAC502
:102C800097A224B00579C771028682449A5D480AEA
:102C900019FE1D6E1A4E64561E110E4E44480E2D1E
:102CA0000A073E894E035D34207D24166DDE033D08
:102CB00056093EE344103D5E174C08E6DBA4319311
:102CC0000DEFBA1D2D30256C06DE68E17125E0247C
:102CD0000D1A20032D340D1DE4151F41D6D01E2CD6
:102CE0000BEFBDC618CDD582AACD96881E4FD698BB
:102CF000F8251D28211D341FA5689D301B39641D32
:102D000044051FA368141F1C0568E3690334141CE1
:102D1000040470A30A071FA37166131259144E7995
:102D2000C01A9DF2047D3E202DE2032C0403790598
:102D30005E103D5A2B4EB6DA0B4C059B8EA42FBE6F
:102D400003190E2E209C190D20A8302D36293C0683
:102D5000DE586061921C232FDEBA4A0711525C06CE
:102D6000968A8AC5B65C0E1C04FFCCF3381F2D086A
:102D7000038624543D4C1A4DF6171DF80E2F82CAB7
:102D8000C80A1C0FD534D6B8E6B86862C574E75ACD
:102D9000DE37DA091C067BF7FEDDD7501B1E648484
:102DA0001AAE246E057D28161E0370054E78B828CD
:102DB0002FEF9CF41C1C059B4D936C5C083D6C1123
:102DC0001D400D2C044460A2F62B4D20200D1E1E2C
:102DD000231D46062404476861803D8A245C06382A
:102DE00092EBB4F20E2D4EDE200F1DF0177EA22ABC
:102DF00022A244C82D3C031C0D7103C532F7BD8AC5
:102E00006AF75B932DE0182C0608FFFE70C5680476
:102E10004C0758E4F77C71869A1DDDF2046D360686
:102E20003C0482BCD17A1A3DC6074C0B9BAD932B58
:102E3000E699EF3DDEB852211DC0067C0441AB6E21
:102E400002170E1BFE76253DCE201FDE38F6214EE2
:102E50002720233C05E6DAE6BA0A312C041ABD9491
:102E60008A2E4D78102C0482A9687C178624584E2F
:102E700079180A3DAA131C0B6821FF9E92CA8B6B1E
:102E8000BC9388141E85C4231EAC80192C0604B57F
:102E900014CD54761FD681006D6E052F60821A1CEA
:102EA0004DA228400FCE177AA9EEDBEF5CEFDDC50F
:102EB000B5EF7DBA8C08790460C1F75DF7AE2501E6
:102EC0001EC82D24033C048A6861B41D1DB4271E4E
:102ED000CE582F1C05ABEFEEFBCA1C4D7E113D609A
:102EE000262F8A892A0C2DD8197D32225D90071D44
:102EF00072041C12E3C4F38A069B0ACDD6ABAE70F3
:102F00008292EBDDF8BE062C0681B47192898A05A7
:102F10001F71647C085D0C1A8D7E185C0568829BAD
:102F2000CEA20A1DE62815841FBDCD9E0F1DFA07EF
:102F30004E9A82053C05ABEF702028034D12070D19
:102F400023FC323D160A1DA2035D34261EBCF60486
:102F50002C04FEA3CE500F1DE4194EDE0A291D4A93
:102F60000A1C040B7062CC060D1140051D361C4D69
:102F7000A4131EC3DC161D4A151DF00A11081DC836
:102F8000159D901B6DC2244D40193C046862ACCC69
:102F9000033DC4134C0EBDC5758AEBD5D59BCE9BA6
:102FA0004DA4F2AA230C072EE73B68A271038834D4
:102FB0003D22111E2FC8082D4C0B1DB8051D4029A0
:102FC0002F1C82A2134C07FFABADD594EFA40631A2
:102FD0002421CA1E71620539560E28048E211DB0A7
:102FE000193E647A182D26271DDE034FBD34962C1A
:102FF0002D66292FBD1248141F9B4D52216EFE666F
:10300000152DD8302D4A230D2C662D4DB0251F7956
:10301000A5CA083A18485D4E0F4C07C575B4F2DED4
:1030200038F8271DFA141D002A1C05D5F670E34C4C
:10303000052D16260E2A436A2239823D1A081D786C
:10304000136C0586EEFAEF622B1FDD8AEC042FD697
:10305000583C2F1B9BAE083DE2032C05B491700039
:1030600024290C042CEFDEF72E2E35E03C07E6B9C0
:10307000686270C3E4252D900F1E5D38141C06BED7
:10308000B513DEDA88192E2F0C323EEF6018040AD1
:103090002BF7BD930B688370E479904D68051E781B
:1030A000561C3D1C0641721C0CFEEF5CC5D7EEB9E8
:1030B000928ACE38E6184C0475F7FDC0293407DE35
:1030C00099608179045C0E2DDF4A261EFEE2301DD8
:1030D0006C0A5C07BCD1700082065A151FFFDEC85F
:1030E000251C07B450F75CB515C0266EFE8E163D44
:1030F00068061C06987A08708268210E12246225E0
:103100000D1282251D38191D700C3F8ACA02055DFB
:103110007A281D2C0F2C049DC535CE0D2C05930C43
:10312000EF19E603290A0C091CF7DD78E46081D663
:10313000388C080D1710274EFE360B1F8B0B6414AE
:103140005E2B26042DB0242C048DB4D1E42A2D024C
:103150002916E69A1DCC245D062B1C07C6579249FA
:1031600060A1D82A8F04798804DE4448092E450AD4
:10317000111DDE074C078168A29AECDEB6204EDFF7
:1031800000052FC51432312FC63760182C04BD55E9
:10319000BD1E253D5E285C0781E76860AC71DA2BB7
:1031A0000D34EA2E3D96041D460E300420B3EFD6B2
:1031B0002D601F4C0434EF7C24301D40033C0487F9
:1031C000E77B78222D04173DC4311C07EF7CBC71CE
:1031D00081C736111D26111D002B2D481C4D9A0547
:1031E0001DC02B1F78E3960F1EA144112806A39241
:1031F00049BD33263DD4233D782C2C05E77C9B8D9F
:1032000016195C078B4DE639DED926183D70129CE5
:10321000088A6A6821A2EBFF54260D338E2C2DCA32
:10322000194008DE71866040B44F107DBC2E1D2809
:10323000141C05BC92E6B9B00D2EB672303DD42BED
:103240005D881A1C0DF79DCDD6A4308AEB81E779F5
:1032500045041D6C12C36903692379658A089B0BB9
:10326000B450DE37FFFD4E2E4D9E1E1DA1332C06A1
:1032700074E71BB471B02B2C05FF7E936DC4163D13
:10328000421A1D7A241D7A033C04419249240A0CF7
:10329000053BBEF7FFFF30391D16312C067D71430B
:1032A0007021441A3EEFE6302DEA351C07E6DAD6E7
:1032B00059D617FA171D68133C05EF5BD69A561CB2
:1032C000F7DEFF361D4622FEFDF8352D1C2D3DB8DC
:1032D000051D04102D30041C047DCDB758074E6B1E
:1032E00082352DA4344DB02A19D44C046189C74EBF
:1032F00035023DFFC659983C063B6923584170078B
:103300004D66141FFFAC281F5C11E6BABCD3C5B6CE
:10331000E6BAA3AEF73CC596CE1724353D1A245D18
:1033200044198D78376D2E396EDFFC0F1C0AE77C4F
:10333000CD95BCD28228B444181ECE241E2C05DEA6
:10334000799B2DD2105D9A1C4C08FE8A4968208911
:10335000E6F4393DE61D0E3CFEC6363DE82E1D5E08
:10336000051D221B3C042082A9A41B4D7C2E1C069B
:10337000BFE7BD81C876054E0D3E0E1C07932DEFAD
:103380005B936D5C137EDD763A6DC8209EFE322D18
:103390002DB6371E7D26151D2A0F2DF8122C0DC6B1
:1033A00016E6BA932C9BCEBD13EFDEB0365D963396
:1033B0003C087B79A668618A89C0366EBE2E090DED
:1033C0003D083251861D54073C068868417966E005
:1033D0001F1DFC2C3DDA1F1D02093DDA303D581A35
:1033E0004C0CEEBAB513FFFE8B2CDE38BDAA102EA6
:1033F000DD72123D3A3C2C06BEF79ED617DE084D14
:103400008C172F930C82162807D659F77DC6589231
:103410004FE69A4E104DE6298C09CE1770A36861CD
:103420009B6DE01D0D4618356DB6251DF6093C0453
:10343000217061F2336DE8371C04FECDF6201B2CA1
:1034400010DFB4B2CDB5B4D2CCD3BCB3D638E6FA23
:10345000DA2F1AF7E02D6E081C04E6599BD8241DBC
:1034600082232EEB040845142004D5F6C5B81C08A9
:10347000BDD5D7F7FEABF08E374D22043DB61F1FEA
:10348000A3ED9C3B4C0461BCD316360246F7C85DE5
:10349000602D4DD8272D320F1DDA233C04219207D1
:1034A00014242DEC1B1DA8032C05E73BDE3948082E
:1034B0001006930CDEB8B4801D8C1D2C0870EF3BF9
:1034C000DE79ABAE26242C05C616AB8E921E5C05AB
:1034D000AC30E75CE03C1DBA071C078A8BFFDCC5FB
:1034E000B524355DA0262FF7BF860F4C0BE658712B
:1034F000A468207965E6B9D6295DD0360E4FFE4026
:10350000382D56331C06BD8AA9704034185ECE048F
:10351000064EDFCC231C04DF3AB4B8251E92760495
:103520001D8A051C061A9BCED699E0341C0CFEEFB2
:103530009DAC91C4F2B470F7FFD2081D36252FEF71
:103540005C36061EEF900B2004ACF2DEAE4DC239A5
:103550002D0E1B1F7B9B66053F6061DA2E4DFC0420
:103560004DE0030D50A43A7DF43E4C0BC595692403
:10357000682170E4BC9100073DDA1D31D01DF61FB3
:103580001F3BAC301C2F938EC2251D04131FD4FF8C
:103590000A03AC0D92CBFFDFBD13AC71BDD6BD35B8
:1035A000EC296DF8202FEF9CD82C3C05602179C7C1
:1035B000D60E6EFF683F0D5F3C3F1DAA3D1C09B44F
:1035C0007068A370007102321F5E3CCA286EBD2C69
:1035D000063D5A051C08BED698EF7CCDF79A041C10
:1035E00004DED638B8114EDE66163D86331EFEAEBA
:1035F000374EFDB3364C0BDEFB938C60A1684071F7
:1036000044B8175D80200D68443F1D9E3C1C0BACE8
:103610004F70E46000606082482E2EAEBEAA350E68
:1036200010FF4C2F7D8E0E7D7E222C065DB4F2792C
:10363000C78E3E5F79458E3A0D7196415EEFE0127E
:103640001C0FBD3382077042682168C28288B4B201
:103650006225EEDE4A2EBD103925AA1C08BDDE58B3
:10366000AC3081E7560A0C08782060828AA8CDD653
:103670004C3FCDD0131C05E6FBAC2F783B2E60BC35
:10368000403C0F70E481E8AB4DB4B1C575DE58E63F
:10369000FA20281C045BEF1BDC181C0A57C574B405
:1036A000719B0B89A7EE2B1DF4403C076882822793
:1036B000B4D158397D44040D71E2407DD44339447E
:1036C00049281C063CC5749B6D8A071C05A2602016
:1036D00058E24019726E009A41310C11101F6800B7
:1036E000B2369C08E79BAECDD6F79EB8378DAE3B81
:1036F0000176C67DD41D2DCE065D1F281C14BEEF9D
:103700001BCE17B533A450A3CEA36D9B4C9B4CA3EB
:103710006D5E223C0671BD53D63778056D401E4D57
:103720003C2F4DD2390E8CDFCE4401FF0101FF0149
:1037300001FF0101FF010D5A0E46500600A24A0486
:103740000001900A010203040607080900010000B5
:0400000508000215D8
:00000001FF
