:020000040800F2
:1000000080170020CD010008830600087B06000849
:100010007F060008690300081F11000800000000A7
:10002000000000000000000000000000D90B0008E4
:100030006D03000800000000090700089B0E00087F
:10004000E7010008E7010008E7010008E7010008F0
:10005000E7010008E7010008E7010008E7010008E0
:10006000E7010008E701000839040008E70100087B
:10007000E7010008E7010008E7010008E7010008C0
:10008000E7010008E7010008E7010008E7010008B0
:10009000E7010008E7010008E7010008E7010008A0
:1000A000E7010008E7010008E7010008E701000890
:1000B000E7010008E7010008E7010008E701000880
:1000C000E7010008E7010008E7010008E701000870
:1000D000E7010008FD0E0008E7010008E70100083D
:1000E000E7010008E7010008E7010008E701000850
:1000F000E7010008E7010008E7010008E701000840
:10010000E7010008E7010008E7010008E70100082F
:10011000E7010008E7010008E7010008E70100081F
:10012000E7010008E7010008E7010008E70100080F
:1001300000F002F800F03AF80AA090E8000C8244BF
:100140008344AAF10107DA4501D100F02FF8AFF29C
:10015000090EBAE80F0013F0010F18BFFB1A43F0A5
:1001600001031847DC160000FC160000103A24BFFB
:1001700078C878C1FAD8520724BF30C830C144BF0C
:1001800004680C607047000000230024002500264E
:10019000103A28BF78C1FBD8520728BF30C148BFEA
:1001A0000B6070471FB51FBD10B510BD00F0AAF859
:1001B0001146FFF7F7FF01F0C9FA00F0C8F803B4E1
:1001C000FFF7F2FF03BC01F075FA00000948804711
:1001D00009480047FEE7FEE7FEE7FEE7FEE7FEE729
:1001E000FEE7FEE7FEE7FEE704480549054A064B41
:1001F000704700009D0E00083101000880110020AA
:100200008017002080130020801300207047032AED
:1002100040F2308010F0030C00F0158011F8013B23
:10022000BCF1020F624498BF11F801CB00F8013B0A
:1002300038BF11F8013BA2F1040298BF00F801CBCE
:1002400038BF00F8013B11F0030300F02980083AA1
:10025000C0F0088051F8043B083A51F804CBA0E8FC
:100260000810F5E7121D5CBF51F8043B40F8043B51
:10027000AFF30080D20724BF11F8013B11F801CB86
:1002800048BF11F8012B24BF00F8013B00F801CB57
:1002900048BF00F8012B70477047704770477047A0
:1002A00010B5203AC0F00B80B1E81850203AA0E811
:1002B0001850B1E81850A0E81850BFF4F5AF5FEA45
:1002C000027C24BFB1E81850A0E8185044BF18C9F8
:1002D00018C0BDE810405FEA827C24BF51F8043B9F
:1002E00040F8043B08BF7047D20728BF31F8023BF3
:1002F00048BF11F8012B28BF20F8023B48BF00F887
:10030000012B7047754600F02BF8AE460500694694
:10031000534620F00700854618B020B5FFF764FF6C
:10032000BDE820404FF000064FF000074FF00008F6
:100330004FF0000B21F00701AC46ACE8C009ACE877
:10034000C009ACE8C009ACE8C0098D46704710B5DB
:100350000446AFF300802046BDE81040FFF72FBFF2
:10036000004870472011002000BFFEE770470000E2
:1003700038B530480078401CC0B28DF800002D48D8
:100380004078401CC0B28DF801002A488078401C9B
:10039000C0B28DF802002748C078401CC0B28DF86A
:1003A00003006A460C21002001F034F901220021EB
:1003B000084601F0E9F801221146002001F0E4F8B6
:1003C000052001F09DF90321002000F0F7FA132821
:1003D00006D010220121002001F0D6F8002038BDFF
:1003E00004220121002001F0CFF800BF00240221E7
:1003F000002000F0E3FA044624B122460221002046
:1004000001F0C2F8052001F07BF904F0080008288B
:1004100001D10020E3E70621002000F0CFFAFF28F9
:1004200006D010220121002001F0AEF8FF20D6E70F
:10043000DCE700002200002010B5102000F010F8CA
:1004400028B1102000F006F801200149087010BD05
:100450003700002001490860704700001404014083
:10046000014600200022074B1B6803EA0102054BEE
:1004700014331B680B4013B10AB1012000E00020C7
:100480007047000000040140002123498279002ABE
:100490003AD00A46126803689A430B461A600A1D4E
:1004A000126803689A430B1D1A60027911440A68A6
:1004B00003681A430A60184A0832126803689A43AC
:1004C000154B08331A601A1D126803689A43124BC1
:1004D0000C331A604279102A0ED11A1F1268036871
:1004E0001A430D4B08331A601A1D126803681A4329
:1004F000094B0C331A600DE00749427911440A6830
:1005000003681A430A6005E0027911440A68036827
:100510009A430A60704700000004014030B5002291
:100520008B071C0F0F2303FA04F20B4B8C1053F8AC
:1005300024309343084C8D1044F8253023468C100A
:1005400053F824308C07240F00FA04F42343024CA0
:100550008D1044F8253030BD080001402DE9F041F0
:10056000024600250026002000230024002791F8E1
:1005700003C00CF00F0591F803C00CF0100CBCF197
:10058000000F03D091F802C04CEA050591F800C0B5
:10059000BCF1000F31D0146800202BE04FF0010CAB
:1005A0000CFA00F3B1F800C00CEA03069E4220D119
:1005B00083004FF00F0C0CFA03F7BC4305FA03FC61
:1005C0004CEA040491F803C0BCF1280F06D14FF0A7
:1005D000010C0CFA00FCC2F814C00AE091F803C048
:1005E000BCF1480F05D14FF0010C0CFA00FCC2F829
:1005F00010C0401C0828D1D31460B1F800C0BCF171
:10060000FF0F34DD546800202EE000F1080C4FF09D
:10061000010808FA0CF3B1F800C00CEA03069E4288
:1006200021D183004FF00F0C0CFA03F7BC4305FAFD
:1006300003FC4CEA040491F803C0BCF1280F05D177
:1006400000F1080C08FA0CF8C2F8148091F803C005
:10065000BCF1480F07D100F1080C4FF0010808FA6F
:100660000CF8C2F81080401C0828CED35460BDE8B6
:10067000F081416170470161704700BFFEE700BF34
:10068000FEE7704770B5002100230F22C47804B341
:10069000154C246804F4E064C4F5E064210AC1F157
:1006A0000403CA40447804FA03F1847814402143D7
:1006B00009010E4C0678A155047804F01F050124A9
:1006C000AC4005786D11AD0005F1E025C5F800419D
:1006D00009E0047804F01F050124AC40044D0678BD
:1006E000761145F8264070BD0CED00E000E400E016
:1006F00080E100E002490143024A116070470000B6
:100700000000FA050CED00E07047000070B50546EA
:100710001349284600F0B6F80446114800781149FC
:1007200008700F48407848700D48807888700C48F1
:10073000C078C8700A4800790B49087008484079A9
:100740004870A4F10802064908310848FFF75FFD28
:10075000A4F1080082B20549284600F051FE70BDA0
:10076000580000202E0000203200002058080020F1
:1007700029B1064AD2690243044BDA6104E0034A14
:10078000D2698243014BDA617047000000100240D9
:1007900029B1064A92690243044B9A6104E0034A74
:1007A00092698243014B9A61704700000010024039
:1007B00030B500210022002400232D4D6D6805F086
:1007C0000C0121B1042905D0082923D105E0294DC8
:1007D000056022E0274D05601FE0254D6D6805F49A
:1007E0007012234D6D6805F48034022505EB9242AA
:1007F0001CB9214D554305600BE01D4D6D6805F496
:1008000000351DB11C4D5543056002E0194D55439F
:10081000056002E0174D056000BF00BF144D6D6814
:1008200005F0F0010909154D6B5C0568DD40456078
:100830000F4D6D6805F4E061090A104D6B5C456869
:10084000DD4085600A4D6D6805F46051C90A0B4DA5
:100850006B5C4568DD40C560054D6D6805F4404141
:10086000890B074D6B5CC568B5FBF3F5056130BDC1
:100870000010024000127A0000093D0042000020F2
:10088000520000202DE9F04781460D4626214846BA
:1008900000F0B6F8064616B90020BDE8F08740F231
:1008A000B450864200DD06462821484600F0A8F8EC
:1008B0000746BA46C7F30A07002030490860380ADD
:1008C00000F014F9F8B200F011F9182101EB491108
:1008D000C8B200F00BF9B819B0F5006F0DDA0024BA
:1008E00008E0002000F002F9804685F800806D1CC9
:1008F000601C84B2B442F4DB2DE0C7F5006087B21F
:10090000002408E0002000F0F1F8804685F800801F
:100910006D1C601C84B2BC42F4DB012017490860E6
:1009200000201749C1F8A00100F0E0F8002000F015
:10093000DDF8182101EB4911C8B200F0D7F808E042
:10094000002000F0D3F8804685F800806D1C601C04
:1009500084B2B442F4DB0120084908600AEB0600C7
:100960001FFA80FA52462821484600F02FFE402206
:100970000121484600F008FE30468EE7A081214262
:100980000080214270B5044600200A490860200A10
:1009900000F0ACF8E0B200F0A9F8012000F0A6F8F1
:1009A000002000F0A3F8054601200349C1F8A0018A
:1009B000284670BDA08121420080214270B50446C6
:1009C0000D4600200C490860280A00F08FF8E8B2B4
:1009D00000F08CF8082101EB4411C9B241F001008C
:1009E00000F084F8002000F081F806460120034959
:1009F000C1F8A001304670BDA08121420080214293
:100A000070B505460E46002011490860300A00F016
:100A10006DF8F0B200F06AF8082101EB4511C9B297
:100A200041F0020000F062F8002000F05FF8044698
:100A30004FF6FF7000EA0424002000F057F820442D
:100A400084B201200349C1F8A001204670BD000016
:100A5000A08121420080214200B587B001210820F9
:100A6000FFF796FE01218803FFF782FE4FF46040F6
:100A7000ADF8180018208DF81B0003208DF81A001F
:100A800006A91848FFF76AFD4FF460411548FFF7C3
:100A9000F2FD0020ADF804004FF48270ADF80600BE
:100AA0000020ADF808000220ADF80A000120ADF8E2
:100AB0000C004002ADF80E003820ADF81000002008
:100AC000ADF812000720ADF8140001A9064800F0A7
:100AD00065F80121044800F047F8FF2000F006F80F
:100AE00007B000BD000C01400038004070B505465D
:100AF000002405E0601CC4B2C82C01DD002070BDDC
:100B000002210E4800F03CF80028F3D029460B489B
:100B100000F042F8002405E0601CC4B2C82C01DDDE
:100B20000020ECE70121054800F02AF80028F3D066
:100B3000024800F02EF8C0B2E1E7000000380040A3
:100B400010B50446074800884FF6C77108400549AC
:100B5000088008460088204308800121014800F0F1
:100B600003F810BD0038004021B1028842F0400275
:100B7000028004E002884FF6BF731A40028070477B
:100B80000246002013890B400BB1012000E0002039
:100B900070470146888970478181704710B50022EF
:100BA000028802F441520B884C8823438C882343EB
:100BB000CC8823430C8923434C8923438C892343CA
:100BC000CC8923431A430280838B4FF2FF74234066
:100BD00083830B8A038210BD704710B500F002F8C2
:100BE00010BD00000CB50020019000903348006853
:100BF00040F480303149086000BF3048006800F49C
:100C0000003000900198401C0190009818B901989C
:100C1000B0F5A06FF1D12948006800F4003010B1A0
:100C20000120009001E0002000900098012843D1AD
:100C30002348006840F01000214908600846006819
:100C400020F0030008600846006840F002000860D9
:100C50001A48406819494860084640684860084694
:100C6000406840F4806048600846406820F47C108A
:100C700048600846406840F4E8104860084600684C
:100C800040F08070086000BF0C48006800F0007001
:100C90000028F9D00948406820F00300074948605F
:100CA0000846406840F00200486000BF03484068C2
:100CB00000F00C000828F9D10CBD00000010024023
:100CC00000200240C02016490870A820487001206A
:100CD0008870C870FF201349087048708870002021
:100CE000C8700C201049087029204870AB2088700B
:100CF0007C20C8700020087101204871C0200B4979
:100D00000870A820487001208870C720C870132080
:100D1000074908708820487002200649087070470B
:100D200014000020180000201C00002022000020D9
:100D3000260000203400002010B5044601220021C6
:100D4000204600F021FC01221146204600F01CFC48
:100D5000052000F0D5FC03212046FFF72FFE1328C5
:100D600006D010220121204600F00EFC002010BD0C
:100D700004220121204600F007FCFF20F7E70000D5
:100D800010B5044640F2B4521221002000F01EFCBF
:100D9000082C17D2DFE804F0040F101112131415F9
:100DA0000A484178007801EB002082B2042100203B
:100DB00000F00CFC07E006E005E004E003E002E0E0
:100DC00001E000E000BF00BF10BD000026000020D1
:100DD00010B5044601220021204600F0D5FB012277
:100DE0001146204600F0D0FB052000F089FC0321CD
:100DF0002046FFF7E3FD132806D0102201212046EC
:100E000000F0C2FB002010BD02220121204600F0AC
:100E1000BBFB052000F074FC03212046FFF7CEFD4C
:100E2000142806D010220121204600F0ADFB00203E
:100E3000E9E7FF20E7E710B504460222002120463B
:100E400000F0A2FB01221146204600F09DFB052088
:100E500000F056FC03212046FFF7B0FD222806D003
:100E600010220121204600F08FFB002010BDFF2042
:100E7000FCE7042808D14FF0E021096941F00401A2
:100E80004FF0E022116107E04FF0E021096921F005
:100E900004014FF0E02211617047704710B513480C
:100EA000006840F001001149086008464068104998
:100EB00008400E494860084600680E4908400B4942
:100EC00008600846006820F48020086008464068F2
:100ED00020F4FE0048604FF41F008860FFF77DFE9D
:100EE0004FF000600449086010BD0000001002408F
:100EF0000000FFF8FFFFF6FE08ED00E010B540F23D
:100F000025511D4800F04AF810B31B4800F002F9C3
:100F1000C4B21A48008800F40040C8B917480088D5
:100F200000F4804060B10A2C03D0002013490880EF
:100F300020E01248008840F400401049088019E081
:100F40000D2C06D10D48008840F480400B490880E4
:100F500010E00A480088C0F30D0009490C54074806
:100F60000088401C0549088008460088C72801DD24
:100F70000020088010BD0000003801404000002023
:100F80005810002021B1828942F40052828104E08D
:100F900082894DF6FF731A408281704770B5024610
:100FA000002400230025002040F66A16B14200D13B
:100FB00000BFC1F3421501F01F03012606FA03F337
:100FC000012D02D19689334006E0022D02D1168A06
:100FD000334001E0968A33400C12012606FA04F4ED
:100FE0001688344013B10CB1012000E0002070BD20
:100FF000F0B50346002400260025002040F66A17BD
:10100000B94200D100BF1846C1F3421401F01F06D7
:10101000012707FA06F5012C01D10C3004E0022C5F
:1010200001D1103000E014301AB107682F43076077
:1010300002E00768AF430760F0BD00002DE9F0470C
:1010400086B005460E460024A24600BFA1460027F2
:10105000B08900B100BF2F462C8A4CF6FF700440C7
:10106000F08804432C82AC894EF6F3100440B0881B
:1010700031890843718908430443AC81AC8A4FF637
:10108000FF400440B0890443AC8201A8FFF790FB05
:101090001F48874202D1DDF810A001E0DDF80CA066
:1010A000A88900F4004040B10AEBCA0000EB0A1026
:1010B00031684900B0FBF1F807E00AEBCA0000EB29
:1010C0000A1031688900B0FBF1F86420B8FBF0F039
:1010D00004012009642101FB1089A88900F4004063
:1010E00040B1322000EBC900B0FBF1F000F0070086
:1010F000044308E0322000EB09106421B0FBF1F05A
:1011000000F00F0004432C8106B0BDE8F08700001A
:101110000038014001468888C0F30800704700BFCE
:10112000FEE700001FB501210820FFF731FB012178
:101130001020FFF72DFB01210846FFF729FB402077
:10114000ADF80C0003208DF80E0010208DF80F0074
:1011500003A92848FFF702FA40212648FFF789FA39
:101160004FF48070ADF80C0003208DF80E001020B5
:101170008DF80F0003A91F48FFF7F0F94FF48071B5
:101180001C48FFF778FA1020ADF80C0003208DF80A
:101190000E0048208DF80F0003A91748FFF7DEF96D
:1011A0004FF4C060FFF7A6FA0A208DF80000002077
:1011B0008DF8010001208DF802008DF803006846CB
:1011C000FFF760FA04210220FFF7A8F91020019030
:1011D00000208DF808000C208DF8090001208DF802
:1011E0000A0001A8FFF750F9FFF736FC0020FFF7CF
:1011F000A7FC1FBD000C01400010014010B50020ED
:101200000A490860322000F07BFA01200849C1F841
:101210009801C82000F074FA00BF2E20FFF7B2FB3F
:1012200000F001000028F8D010BD00009881214294
:101230000080214210B50024FFF774FFFFF7DEFFA6
:101240008021002000F066F90A2000F059FA0422FB
:101250001C49012000F00CFA04221B49052000F073
:1012600007FA06221949092000F002FA0422184957
:101270000F2000F0FDF900BF0BE002221E212046E6
:1012800000F082F902221F21204600F07DF9601C47
:10129000C4B2082CF1DB4FF4FA61192000F056F9C2
:1012A00008211B2000F036F9C021162000F032F989
:1012B0000121182000F02EF91F222C21002000F01F
:1012C00063F910BD14000020180000201C0000204D
:1012D0002200002070B500BF00202B4908701520A7
:1012E000FFF750FB054605F0F001152000F012F95C
:1012F0001720FFF747FB054605F0010000283DD009
:1013000002210020FFF75AFB04462246022100205A
:1013100000F03AF904F0010028B11C48007840F0D0
:1013200002001A49087004F0020050B11022012195
:10133000002000F029F90020FFF722FD00201349CA
:10134000087004F0100028B11148007840F0020045
:101350000F49087004F0040028B10D48007840F0EF
:1013600001000B49087004F0080038B11022012177
:10137000002000F009F90020044908701720FFF749
:1013800001FB00B1A8E770BD370000203500002048
:101390003600002010B518480078F8B917480078D2
:1013A00060B90020FFF714FDFF2803D10120124986
:1013B000087020E00020104908701CE00F480078F9
:1013C00001280CD10020FFF7B7FCFF2803D1012032
:1013D000094908700FE00020074908700BE0002061
:1013E000FFF729FDFF2803D103200349087002E01D
:1013F00000200149087010BD350000203400002095
:101400002DE9F04707460D46904600213846FFF784
:10141000D5FA00F00F0022280ED03A4A0C213846A7
:1014200000F0F8F838484178007801EB002082B2EB
:101430001021384600F0CAF824213846FFF7E0FAB8
:101440000646B146C6F30A06002030490860300A55
:10145000FFF74CFBF0B2FFF749FB102101EB4711FE
:10146000C9B241F00400FFF741FB06EB0800B0F5FC
:10147000006F0ADA002405E015F8010BFFF736FBD0
:10148000601C84B24445F7DB29E0C6F5006086B2F3
:10149000002405E015F8010BFFF728FB601C84B25F
:1014A000B442F7DB01201949086000201849C1F84F
:1014B000A001FFF71BFB0020FFF718FB102101EB39
:1014C0004711C9B241F00400FFF710FB05E015F821
:1014D000010BFFF70BFB601C84B24445F7DB0120D6
:1014E0000A49086009EB08001FFA80F94A462421DE
:1014F000384600F06BF820220121384600F044F80D
:10150000BDE8F0872E00002032000020A08121429B
:101510000080214270B504460D460020094908604C
:10152000200AFFF7E3FAE0B2FFF7E0FA0520FFF741
:10153000DDFA2846FFF7DAFA01200349C1F8A001D5
:1015400070BD0000A08121420080214270B5044698
:101550000D4600200A490860200AFFF7C7FAE0B2EA
:10156000FFF7C4FA0620FFF7C1FA280AFFF7BEFA10
:10157000E8B2FFF7BBFA01200249C1F8A00170BD33
:10158000A08121420080214270B504460D461646D6
:1015900000200C490860280AFFF7A8FAE8B2FFF714
:1015A000A5FA082101EB4411C9B241F00500FFF78B
:1015B0009DFA3046FFF79AFA01200349C1F8A001CD
:1015C00070BD0000A08121420080214270B5044618
:1015D0000D46164600200D490860280AFFF786FAD6
:1015E000E8B2FFF783FA082101EB4411C9B241F0D8
:1015F0000600FFF77BFA300AFFF778FAF0B2FFF740
:1016000075FA01200249C1F8A00170BDA0812142F4
:101610000080214270B505460E461446002012494E
:101620000860300AFFF762FAF0B2FFF75FFA0821AC
:1016300001EB4511C9B241F00700FFF757FA14F862
:10164000010BFFF753FA14F8010BFFF74FFA14F8E8
:10165000010BFFF74BFA14F8010BFFF747FA0120D3
:101660000249C1F8A00170BDA08121420080214241
:101670002DE9F04104460D46164600200C4908604D
:10168000200AFFF733FAE0B2FFF730FA0420FFF741
:101690002DFA002705E015F8010BFFF727FA781C53
:1016A00087B2B742F7DB012001490860BDE8F0814D
:1016B000A0812142014600BF7047000010B56FF0C5
:1016C0000400FFF7D6FB0A4800680A49B0FBF1F0B6
:1016D000094908700846007800EB4001C1EBC010D2
:1016E0004FF6FF7101EAC0000449088010BD0000F8
:1016F0000000002000127A00380000203A0000208C
:101700000146114A12884A434FF0E0235A610022F1
:101710009A611A46126942F001021A6100BF4FF045
:10172000E022106900F001021AB100F48032002AB0
:10173000F5D04FF0E022126922F001024FF0E023D1
:101740001A6100229A6170473A000020FFF7B6FF45
:101750004FF4E13000F024F8FFF7B4FAFFF76AFD28
:10176000FEF706FE0020FFF70BFBFFF713FE12E06B
:101770000948007808B1FFF7ADFD0848007800F08F
:10178000010040B10548007820F0010003490870CD
:101790000020FEF7BBFFEBE73700002036000020FB
:1017A00010B586B00446012144F20400FEF7F0FFB4
:1017B0004FF40070ADF8140003208DF816001820C7
:1017C0008DF8170005A91C48FEF7C8FE4FF480608D
:1017D000ADF8140004208DF8170005A91648FEF78F
:1017E000BDFE25208DF8000003208DF801008DF846
:1017F000020001208DF803006846FEF743FF0194C4
:101800000020ADF80800ADF80A00ADF80C00ADF806
:1018100010000C20ADF80E0001A90848FFF70EFCDF
:10182000012240F225510548FFF7E2FB0121034860
:10183000FFF7A8FB06B010BD0008014000380140CA
:101840006018000800000020580000006C0100082B
:10185000B818000858000020281700008801000868
:1018600000A24A040000000000000000010203047E
:10187000060708090000000000000000000000004A
:101880000000000000000000000000000000000058
:101890000000000003000000000000000000000045
:1018A0000000000000000102030401020304060717
:0818B00008090204060800000B
:04000005080001CD21
:00000001FF
