:020000040800F2
:1000000060070020D50100084F05000847050008DB
:100010004B050008E10300087B0D0008000000000C
:10002000000000000000000000000000A50800081B
:10003000F703000800000000C1050008F50A0008E9
:10004000EF010008EF010008EF010008EF010008D0
:10005000EF010008EF010008EF010008EF010008C0
:10006000EF010008EF010008EF010008EF010008B0
:10007000EF010008EF010008EF010008EF010008A0
:10008000EF010008EF010008EF010008EF01000890
:10009000EF010008EF010008EF010008EF01000880
:1000A000EF010008EF010008EF010008EF01000870
:1000B000EF010008EF010008EF010008EF01000860
:1000C000EF010008EF010008EF010008EF01000850
:1000D000EF010008590B0008EF010008EF010008CC
:1000E000EF010008EF010008EF010008EF01000830
:1000F000EF010008EF010008EF010008EF01000820
:10010000EF010008EF010008EF010008EF0100080F
:10011000EF010008EF010008EF010008EF010008FF
:10012000EF010008EF010008EF010008EF010008EF
:1001300000F002F800F03FF80AA090E8000C8244BA
:100140008344AAF10107DA4501D100F034F8AFF297
:10015000090EBAE80F0013F0010F18BFFB1A43F0A5
:1001600001031847AC0E0000CC0E0000103A24BF6B
:1001700078C878C1FAD8520724BF30C830C144BF0C
:1001800004680C607047000000230024002500264E
:10019000103A28BF78C1FBD8520728BF30C148BFEA
:1001A0000B607047732900F0B680002070471FB5C0
:1001B0001FBD10B510BD00F0E1F81146FFF7F7FFC5
:1001C00000F0A0FE00F0FFF803B4FFF7F2FF03BC5D
:1001D00000F018FE0948804709480047FEE7FEE79F
:1001E000FEE7FEE7FEE7FEE7FEE7FEE7FEE7FEE7E7
:1001F00004480549054A064B70470000F90A000803
:100200003101000860010020600700206003002029
:1002100060030020704700000FB4044910B503AA22
:10022000029800F07DF810BC5DF814FB1800002067
:100230002DE9F0410E460446002020622046E16888
:10024000884730B3252805D0D4E901219047206A9A
:10025000401CF2E7E168204600278847050018D0D7
:10026000A5F14100192802D820354FF40067324625
:10027000294620462760FFF795FF40B1012804D0AA
:10028000F61D26F007060836D8E7361DD6E72846BD
:10029000DAE7206ABDE8F08170B50C460546012A10
:1002A00005D02878800600D5EA69002302E0012302
:1002B00005E05B1C934202D2E05C0028F9D1A869FA
:1002C000E618C01AA861286A184428622846AFF3C5
:1002D000008004E0D5E9012114F8010B9047B442F5
:1002E000F8D32846AFF3008070BD70477047704761
:1002F000704710B5436913B1AFF3008001E0FFF719
:10030000CBFF012010BD127800F124010A700022F9
:100310004A700122EDE711684FF0FF32E9E7000073
:10032000074B70B50D467B4400F011F80446284693
:1003300000F020F810B14FF0FF3070BD204670BDC6
:10034000BF0B000001694A1C02610878704700B5C4
:100350008FB0CDE901310021059105497944CDE9FE
:10036000031011466846FFF763FF0FB000BD0000A1
:10037000E5FFFFFF007B00F080007047754600F04E
:100380002BF8AE4605006946534620F00700854627
:1003900018B020B5FFF72CFFBDE820404FF0000655
:1003A0004FF000074FF000084FF0000B21F007015D
:1003B000AC46ACE8C009ACE8C009ACE8C009ACE8A0
:1003C000C0098D46704710B50446AFF30080204643
:1003D000BDE81040FFF7F8BE00487047FC00002061
:1003E00000BFFEE710B500BF00F066F900F00100A5
:1003F0000028F9D110BD704708B50121102000F088
:10040000E1F81020ADF8000003208DF80200102064
:100410008DF803006946044800F008F810210248EE
:1004200000F08FF808BD0000001001402DE9F041F8
:10043000024600250026002000230024002791F812
:1004400003C00CF00F0591F803C00CF0100CBCF1C8
:10045000000F03D091F802C04CEA050591F800C0E6
:10046000BCF1000F31D0146800202BE04FF0010CDC
:100470000CFA00F3B1F800C00CEA03069E4220D14A
:1004800083004FF00F0C0CFA03F7BC4305FA03FC92
:100490004CEA040491F803C0BCF1280F06D14FF0D8
:1004A000010C0CFA00FCC2F814C00AE091F803C079
:1004B000BCF1480F05D14FF0010C0CFA00FCC2F85A
:1004C00010C0401C0828D1D31460B1F800C0BCF1A2
:1004D000FF0F34DD546800202EE000F1080C4FF0CF
:1004E000010808FA0CF3B1F800C00CEA03069E42BA
:1004F00021D183004FF00F0C0CFA03F7BC4305FA2F
:1005000003FC4CEA040491F803C0BCF1280F05D1A8
:1005100000F1080C08FA0CF8C2F8148091F803C036
:10052000BCF1480F07D100F1080C4FF0010808FAA0
:100530000CF8C2F81080401C0828CED35460BDE8E7
:10054000F0810161704700BFFEE700BFFEE7704722
:1005500070B5002100230F22C47804B3154C246821
:1005600004F4E064C4F5E064210AC1F10403CA4064
:10057000447804FA03F184781440214309010E4CB5
:100580000678A155047804F01F050124AC400578D5
:100590006D11AD0005F1E025C5F8004109E00478D2
:1005A00004F01F050124AC40044D0678761145F88F
:1005B000264070BD0CED00E000E400E080E100E0CA
:1005C0007047000029B1064A92690243044B9A61C0
:1005D00004E0034A92698243014B9A61704700002C
:1005E0000010024030B500210022002400232D4DD0
:1005F0006D6805F00C0121B1042905D0082923D12B
:1006000005E0294D056022E0274D05601FE0254DDE
:100610006D6805F47012234D6D6805F48034022571
:1006200005EB92421CB9214D554305600BE01D4D71
:100630006D6805F400351DB11C4D5543056002E0A1
:10064000194D5543056002E0174D056000BF00BF1E
:10065000144D6D6805F0F0010909154D6B5C0568D6
:10066000DD4045600F4D6D6805F4E061090A104DED
:100670006B5C4568DD4085600A4D6D6805F460512E
:10068000C90A0B4D6B5C4568DD40C560054D6D6862
:1006900005F44041890B074D6B5CC568B5FBF3F56C
:1006A000056130BD0010024000127A0000093D00D3
:1006B0001E0000202E00002010B500200749086011
:1006C000052000F055F8002000F052F80446012003
:1006D0000349C1F89801204610BD0000980123424B
:1006E0000000234200B587B0012141F20400FFF76A
:1006F00069FFE020ADF8180018208DF81B000320DA
:100700008DF81A0006A91848FFF790FEE021164858
:10071000FFF717FF0020ADF804004FF48270ADF82A
:1007200006000020ADF808000220ADF80A00012004
:10073000ADF80C004002ADF80E003820ADF8100006
:100740000020ADF812000720ADF8140001A90748F9
:1007500000F066F80121054800F048F8FF2000F09D
:1007600007F807B000BD000000080140003001405C
:1007700070B50546002405E0601CC4B2C82C01DD3C
:10078000002070BD02210E4800F03CF80028F3D094
:1007900029460B4800F042F8002405E0601CC4B272
:1007A000C82C01DD0020ECE70121054800F02AF803
:1007B0000028F3D0024800F02EF8C0B2E1E70000B4
:1007C0000030014010B50446074800884FF6C77155
:1007D0000840054908800846008820430880012118
:1007E000014800F003F810BD0030014021B102883B
:1007F00042F04002028004E002884FF6BF731A40C4
:10080000028070470246002013890B400BB1012083
:1008100000E0002070470146888970478181704759
:1008200010B50022028802F441520B884C88234301
:100830008C882343CC8823430C8923434C8923434E
:100840008C892343CC8923431A430280838B4FF244
:10085000FF74234083830B8A038210BD08B50121F6
:100860004020FFF7AFFE4020ADF8000010208DF8CB
:10087000030003208DF8020069460848FFF7D6FD03
:1008800040210648FFF75DFE012005490860FFF79B
:1008900029FF0820FFF796FF08BD0000001801405F
:1008A000980123427047000010B5044600F08AFA10
:1008B00000F078FA00200B4908602020FFF758FF6D
:1008C000C4F30740FFF754FFC4F30720FFF750FFBE
:1008D000E0B2FFF74DFF01200349C1F89801FFF78F
:1008E00081FD10BD98012342000023422DE9F04113
:1008F00004460E46174600250020104908600B20CC
:10090000FFF736FFC4F30740FFF732FFC4F30720B9
:10091000FFF72EFFE0B2FFF72BFF0020FFF728FFC5
:1009200005E00020FFF724FF7055681C85B2BD422A
:10093000F7DB012001490860BDE8F08198012342FE
:100940002DE9F04105460C46174600262846FFF7DC
:10095000ABFF00F037FA00F025FA00201F490860CD
:10096000AD20FFF705FFC5F30740FFF701FFC5F313
:100970000720FFF7FDFEE8B2FFF7FAFE2078FFF749
:10098000F7FE6078FFF7F4FE01201549C1F89801E1
:10099000022618E00A2000F081FA00200F490860C2
:1009A000AD20FFF7E5FE3146721C96B2605CFFF7A2
:1009B000DFFE3146721C96B2605CFFF7D9FE012063
:1009C0000749C1F89801BE42E4DB0A2000F066FA4C
:1009D00000F0D6F9FFF706FDBDE8F081980123424B
:1009E0000000234210B500F001F810BD0CB5002046
:1009F000019000903348006840F48030314908602D
:100A000000BF3048006800F4003000900198401C9E
:100A10000190009818B90198B0F5A06FF1D129485C
:100A2000006800F4003010B10120009001E00020C7
:100A300000900098012843D12348006840F010003E
:100A4000214908600846006820F003000860084655
:100A5000006840F0020008601A4840681949486080
:100A60000846406848600846406840F48060486036
:100A70000846406820F47C1048600846406840F40E
:100A8000E81048600846006840F08070086000BFC9
:100A90000C48006800F000700028F9D00948406850
:100AA00020F00300074948600846406840F0020013
:100AB000486000BF0348406800F00C000828F9D1E6
:100AC0000CBD00000010024000200240042808D1A4
:100AD0004FF0E021096941F004014FF0E02211617B
:100AE00007E04FF0E021096921F004014FF0E02216
:100AF000116170477047000010B51348006840F05E
:100B000001001149086008464068104908400E4934
:100B10004860084600680E4908400B4908600846CE
:100B2000006820F4802008600846406820F4FE0039
:100B300048604FF41F008860FFF754FF4FF00060DB
:100B40000449086010BD0000001002400000FFF8DA
:100B5000FFFFF6FE08ED00E010B540F225511D48FC
:100B600000F04AF810B31B4800F002F9C4B21A486A
:100B7000008800F40040C8B91748008800F480409D
:100B800060B10A2C03D000201349088020E01248ED
:100B9000008840F400401049088019E00D2C06D16F
:100BA0000D48008840F480400B49088010E00A4856
:100BB0000088C0F30D0009490C5407480088401C08
:100BC0000549088008460088C72801DD0020088004
:100BD00010BD0000003801401C000020340000203F
:100BE00021B1828942F40052828104E082894DF66B
:100BF000FF731A408281704770B5024600240023BB
:100C00000025002040F66A16B14200D100BFC1F3B2
:100C1000421501F01F03012606FA03F3012D02D14C
:100C20009689334006E0022D02D1168A334001E056
:100C3000968A33400C12012606FA04F416883440D2
:100C400013B10CB1012000E0002070BDF0B50346E7
:100C5000002400260025002040F66A17B94200D182
:100C600000BF1846C1F3421401F01F06012707FA1E
:100C700006F5012C01D10C3004E0022C01D110301A
:100C800000E014301AB107682F43076002E00768DC
:100C9000AF430760F0BD00002DE9F04786B0054680
:100CA0000E460024A24600BFA1460027B08900B12D
:100CB00000BF2F462C8A4CF6FF700440F088044396
:100CC0002C82AC894EF6F3100440B0883189084379
:100CD000718908430443AC81AC8A4FF6FF4004405D
:100CE000B0890443AC8201A8FFF77CFC1F4887420F
:100CF00002D1DDF810A001E0DDF80CA0A88900F415
:100D0000004040B10AEBCA0000EB0A10316849000C
:100D1000B0FBF1F807E00AEBCA0000EB0A103168FB
:100D20008900B0FBF1F86420B8FBF0F00401200961
:100D3000642101FB1089A88900F4004040B13220F1
:100D400000EBC900B0FBF1F000F00700044308E03D
:100D5000322000EB09106421B0FBF1F000F00F002D
:100D600004432C8106B0BDE8F08700000038014044
:100D700001468888C0F30800704700BFFEE7000006
:100D800010B50020054908600420FFF7F1FC0120A0
:100D90000349C1F89801FFF725FB10BD98012342D4
:100DA0000000234210B50020044908600620FFF728
:100DB000DFFC01200249C1F8980110BD98012342CF
:100DC0000000234210B500200C4908605020FFF7B6
:100DD000CFFC01200A49C1F89801002007490860AA
:100DE0000120FFF7C5FC0020FFF7C2FC01200449E9
:100DF000C1F89801FFF7F6FA10BD000098012342F0
:100E000000002342014600BF7047000010B56FF09C
:100E10000400FFF75BFE0A4800680A49B0FBF1F0E6
:100E2000094908700846007800EB4001C1EBC0108A
:100E30004FF6FF7101EAC0000449088010BD0000B0
:100E40000000002000127A0014000020160000208C
:100E50000146114A12884A434FF0E0235A610022AA
:100E60009A611A46126942F001021A6100BF4FF0FE
:100E7000E022106900F001021AB100F48032002A69
:100E8000F5D04FF0E022126922F001024FF0E0238A
:100E90001A6100229A617047160000200146114A2B
:100EA00012784A434FF0E0235A6100229A611A46B1
:100EB000126942F001021A6100BF4FF0E02210698E
:100EC00000F001021AB100F48032002AF5D04FF090
:100ED000E022126922F001024FF0E0231A610022A1
:100EE0009A6170471400002000BF054A128802F082
:100EF0004002002AF9D0C2B2014B1B1D1A80704774
:100F00000038014086B0FFF781FF4FF4E13000F078
:100F100023F8FFF771FAFFF7A1FC16220B49002016
:100F2000FFF70EFD4FF47A70FFF792FF1622694625
:100F30000020FFF7DBFC07E0694605A0FFF76CF92E
:100F40004FF47A70FFF784FFF6E70000F80F00080F
:100F500025730D0A0000000010B586B0044601217B
:100F600044F20400FFF72EFB4FF40070ADF81400BC
:100F700003208DF8160018208DF8170005A91C48CD
:100F8000FFF754FA4FF48060ADF8140004208DF898
:100F9000170005A91648FFF749FA25208DF800002B
:100FA00003208DF801008DF8020001208DF8030068
:100FB0006846FFF7CDFA01940020ADF80800ADF8BF
:100FC0000A00ADF80C00ADF810000C20ADF80E00D2
:100FD00001A90848FFF760FE012240F225510548AB
:100FE000FFF734FE01210348FFF7FAFD06B010BDFC
:100FF000000801400038014057617253686970531E
:10100000544D33322053504920544553540000006E
:101010003010000800000020340000006C010008BF
:1010200064100008340000202C070000880100082C
:1010300000A24A04000000000000000001020304B6
:101040000607080900000000000000000000000082
:101050000000010203040102030406070809020458
:04106000060800007E
:04000005080001D519
:00000001FF
