:020000040800F2
:1000000048070020D50100081B050008130500085B
:1000100017050008E1030008BF0A000800000000FF
:10002000000000000000000000000000250700089C
:10003000F7030008000000001D050008750900080E
:10004000EF010008EF010008EF010008EF010008D0
:10005000EF010008EF010008EF010008EF010008C0
:10006000EF010008EF010008EF010008EF010008B0
:10007000EF010008EF010008EF010008EF010008A0
:10008000EF010008EF010008EF010008EF01000890
:10009000EF010008EF010008EF010008EF01000880
:1000A000EF010008EF010008EF010008EF01000870
:1000B000EF010008EF010008EF010008EF01000860
:1000C000EF010008EF010008EF010008EF01000850
:1000D000EF010008D9090008EF010008EF0100084E
:1000E000EF010008EF010008EF010008EF01000830
:1000F000EF010008EF010008EF010008EF01000820
:10010000EF010008EF010008EF010008EF0100080F
:10011000EF010008EF010008EF010008EF010008FF
:10012000EF010008EF010008EF010008EF010008EF
:1001300000F002F800F03FF80AA090E8000C8244BA
:100140008344AAF10107DA4501D100F034F8AFF297
:10015000090EBAE80F0013F0010F18BFFB1A43F0A5
:1001600001031847440B0000640B0000103A24BF41
:1001700078C878C1FAD8520724BF30C830C144BF0C
:1001800004680C607047000000230024002500264E
:10019000103A28BF78C1FBD8520728BF30C148BFEA
:1001A0000B607047732900F0B680002070471FB5C0
:1001B0001FBD10B510BD00F0E1F81146FFF7F7FFC5
:1001C00000F042FD00F0FFF803B4FFF7F2FF03BCBC
:1001D00000F0BAFC0948804709480047FEE7FEE7FF
:1001E000FEE7FEE7FEE7FEE7FEE7FEE7FEE7FEE7E7
:1001F00004480549054A064B704700007909000884
:100200003101000848010020480700204803002071
:1002100048030020704700000FB4044910B503AA3A
:10022000029800F07DF810BC5DF814FB1800002067
:100230002DE9F0410E460446002020622046E16888
:10024000884730B3252805D0D4E901219047206A9A
:10025000401CF2E7E168204600278847050018D0D7
:10026000A5F14100192802D820354FF40067324625
:10027000294620462760FFF795FF40B1012804D0AA
:10028000F61D26F007060836D8E7361DD6E72846BD
:10029000DAE7206ABDE8F08170B50C460546012A10
:1002A00005D02878800600D5EA69002302E0012302
:1002B00005E05B1C934202D2E05C0028F9D1A869FA
:1002C000E618C01AA861286A184428622846AFF3C5
:1002D000008004E0D5E9012114F8010B9047B442F5
:1002E000F8D32846AFF3008070BD70477047704761
:1002F000704710B5436913B1AFF3008001E0FFF719
:10030000CBFF012010BD127800F124010A700022F9
:100310004A700122EDE711684FF0FF32E9E7000073
:10032000074B70B50D467B4400F011F80446284693
:1003300000F020F810B14FF0FF3070BD204670BDC6
:100340000309000001694A1C02610878704700B582
:100350008FB0CDE901310021059105497944CDE9FE
:10036000031011466846FFF763FF0FB000BD0000A1
:10037000E5FFFFFF007B00F080007047754600F04E
:100380002BF8AE4605006946534620F00700854627
:1003900018B020B5FFF72CFFBDE820404FF0000655
:1003A0004FF000074FF000084FF0000B21F007015D
:1003B000AC46ACE8C009ACE8C009ACE8C009ACE8A0
:1003C000C0098D46704710B50446AFF30080204643
:1003D000BDE81040FFF7F8BE00487047E800002075
:1003E00000BFFEE710B500BF00F0AAF800F0010062
:1003F0000028F9D110BD70472DE9F04102460025D3
:100400000026002000230024002791F803C00CF0F0
:100410000F0591F803C00CF0100CBCF1000F03D0D5
:1004200091F802C04CEA050591F800C0BCF1000F3C
:1004300031D0146800202BE04FF0010C0CFA00F3CF
:10044000B1F800C00CEA03069E4220D183004FF0B1
:100450000F0C0CFA03F7BC4305FA03FC4CEA040446
:1004600091F803C0BCF1280F06D14FF0010C0CFA33
:1004700000FCC2F814C00AE091F803C0BCF1480FB8
:1004800005D14FF0010C0CFA00FCC2F810C0401C62
:100490000828D1D31460B1F800C0BCF1FF0F34DDDF
:1004A000546800202EE000F1080C4FF0010808FA13
:1004B0000CF3B1F800C00CEA03069E4221D1830080
:1004C0004FF00F0C0CFA03F7BC4305FA03FC4CEA9F
:1004D000040491F803C0BCF1280F05D100F1080C09
:1004E00008FA0CF8C2F8148091F803C0BCF1480F68
:1004F00007D100F1080C4FF0010808FA0CF8C2F817
:100500001080401C0828CED35460BDE8F081016102
:10051000704700BFFEE700BFFEE77047704700006E
:1005200029B1064A92690243044B9A6104E0034AE6
:1005300092698243014B9A617047000000100240AB
:1005400010B5002005490860052000F051F8044668
:1005500001200349C1F89801204610BD98012342AB
:100560000000234200B587B0012141F20400FFF7EB
:10057000D7FFE020ADF8180018208DF81B000320ED
:100580008DF81A0006A91848FFF736FFE021164833
:10059000FFF7BDFF0020ADF804004FF48270ADF806
:1005A00006000020ADF808000220ADF80A00012086
:1005B000ADF80C004002ADF80E003820ADF8100088
:1005C0000020ADF812000720ADF8140001A907487B
:1005D00000F066F80121054800F048F8FF2000F01F
:1005E00007F807B000BD00000008014000300140DE
:1005F00070B50546002405E0601CC4B2C82C01DDBE
:10060000002070BD02210E4800F03CF80028F3D015
:1006100029460B4800F042F8002405E0601CC4B2F3
:10062000C82C01DD0020ECE70121054800F02AF884
:100630000028F3D0024800F02EF8C0B2E1E7000035
:100640000030014010B50446074800884FF6C771D6
:100650000840054908800846008820430880012199
:10066000014800F003F810BD0030014021B10288BC
:1006700042F04002028004E002884FF6BF731A4045
:10068000028070470246002013890B400BB1012005
:1006900000E00020704701468889704781817047DB
:1006A00010B50022028802F441520B884C88234383
:1006B0008C882343CC8823430C8923434C892343D0
:1006C0008C892343CC8923431A430280838B4FF2C6
:1006D000FF74234083830B8A038210BD08B5012178
:1006E0004020FFF71DFF4020ADF8000010208DF8DE
:1006F000030003208DF8020069460848FFF77CFEDE
:1007000040210648FFF703FF012005490860FFF775
:1007100029FF0020FFF796FF08BD000000180140E8
:10072000980123427047000010B5044600F0ECF930
:1007300000F0DAF900200B4908602020FFF758FF8D
:10074000C4F30740FFF754FFC4F30720FFF750FF3F
:10075000E0B2FFF74DFF01200349C1F89801FFF710
:1007600041FE10BD98012342000023422DE9F041D3
:1007700004460E46174600250020104908600B204D
:10078000FFF736FFC4F30740FFF732FFC4F307203B
:10079000FFF72EFFE0B2FFF72BFF0020FFF728FF47
:1007A00005E00020FFF724FF7055681C85B2BD42AC
:1007B000F7DB012001490860BDE8F0819801234280
:1007C0002DE9F04105460C46174600262846FFF75E
:1007D000ABFF00F099F900F087F900201F4908608D
:1007E000AD20FFF705FFC5F30740FFF701FFC5F395
:1007F0000720FFF7FDFEE8B2FFF7FAFE2078FFF7CB
:10080000F7FE6078FFF7F4FE01201549C1F8980162
:10081000022618E00A2000F0E3F900200F490860E2
:10082000AD20FFF7E5FE3146721C96B2605CFFF723
:10083000DFFE3146721C96B2605CFFF7D9FE0120E4
:100840000749C1F89801BE42E4DB0A2000F0C8F96C
:1008500000F038F9FFF7C6FDBDE8F08198012342AA
:100860000000234210B500F001F810BD0CB50020C7
:10087000019000903348006840F4803031490860AE
:1008800000BF3048006800F4003000900198401C20
:100890000190009818B90198B0F5A06FF1D12948DE
:1008A000006800F4003010B10120009001E0002049
:1008B00000900098012843D12348006840F01000C0
:1008C000214908600846006820F0030008600846D7
:1008D000006840F0020008601A4840681949486002
:1008E0000846406848600846406840F480604860B8
:1008F0000846406820F47C1048600846406840F490
:10090000E81048600846006840F08070086000BF4A
:100910000C48006800F000700028F9D009484068D1
:1009200020F00300074948600846406840F0020094
:10093000486000BF0348406800F00C000828F9D167
:100940000CBD00000010024000200240042808D125
:100950004FF0E021096941F004014FF0E0221161FC
:1009600007E04FF0E021096921F004014FF0E02297
:10097000116170477047000010B51348006840F0DF
:1009800001001149086008464068104908400E49B6
:100990004860084600680E4908400B490860084650
:1009A000006820F4802008600846406820F4FE00BB
:1009B00048604FF41F008860FFF754FF4FF000605D
:1009C0000449086010BD0000001002400000FFF85C
:1009D000FFFFF6FE08ED00E010B540F225511D487E
:1009E00000F03EF810B31B4800F064F8C4B21A4897
:1009F000008800F40040C8B91748008800F480401F
:100A000060B10A2C03D000201349088020E012486E
:100A1000008840F400401049088019E00D2C06D1F0
:100A20000D48008840F480400B49088010E00A48D7
:100A30000088C0F30D0009490C5407480088401C89
:100A40000549088008460088C72801DD0020088085
:100A500010BD0000003801401C00002020000020D4
:100A600070B50246002400230025002040F66A16D7
:100A7000B14200D100BFC1F3421501F01F030126AE
:100A800006FA03F3012D02D19689334006E0022DC8
:100A900002D1168A334001E0968A33400C120126B7
:100AA00006FA04F41688344013B10CB1012000E0BA
:100AB000002070BD01468888C0F30800704700BF61
:100AC000FEE7000010B50020054908600420FFF78C
:100AD0008FFD01200349C1F89801FFF783FC10BD89
:100AE000980123420000234210B500200449086009
:100AF0000620FFF77DFD01200249C1F8980110BDD5
:100B0000980123420000234210B500200C490860E0
:100B10005020FFF76DFD01200A49C1F8980100201F
:100B2000074908600120FFF763FD0020FFF760FD23
:100B300001200449C1F89801FFF754FC10BD0000E2
:100B40009801234200002342014600BF7047000085
:100B500010B56FF00400FFF7F9FE0A4800680A4973
:100B6000B0FBF1F0094908700846007800EB40013D
:100B7000C1EBC0104FF6FF7101EAC00004490880C4
:100B800010BD00000000002000127A0014000020B8
:100B9000160000200146114A12884A434FF0E02314
:100BA0005A6100229A611A46126942F001021A61E2
:100BB00000BF4FF0E022106900F001021AB100F40A
:100BC0008032002AF5D04FF0E022126922F00102B3
:100BD0004FF0E0231A6100229A617047160000204E
:100BE0000146114A12784A434FF0E0235A6100222D
:100BF0009A611A46126942F001021A6100BF4FF071
:100C0000E022106900F001021AB100F48032002ADB
:100C1000F5D04FF0E022126922F001024FF0E023FC
:100C20001A6100229A6170471400002000BF054A33
:100C3000128802F04002002AF9D0C2B2014B1B1DFB
:100C40001A8070470038014086B0FFF781FFFFF738
:100C500045FD16220B490020FFF7B2FD4FF47A70D4
:100C6000FFF798FF162269460020FFF77FFD07E097
:100C7000694605A0FFF7D0FA4FF47A70FFF78AFFB4
:100C8000F6E70000900C000825730D0A0000000034
:100C90005761725368697053544D33322053504931
:100CA0002054455354000000C80C000800000020E8
:100CB000200000006C010008E80C00082000002063
:100CC000280700008801000800A24A040000000074
:100CD00000000000010203040607080900000000EC
:080CE00000000000000000000C
:04000005080001D519
:00000001FF
